:04000000FEEFFFF020
:1020000000F62600000000000000062A0000000084
:102010005028000000000000000000000000000048
:1020200000000000000000000000000000000000B0
:1020300000000000000000000000000000BC2800BC
:102040009A280078280000000020260000000000E8
:102050000000000000000000000000000000000080
:102060000000000000000000000000000000000070
:102070000000000000000000000000000000000060
:102080000000000000222900002900DE28000000D6
:102090000025640A00001F50D96EDA6A6F007FFFC6
:1020A000F6FF200EF76E000EF86E0800F550250AB8
:1020B000D8A45DEF10F05FEF10F022EF11F01F5089
:1020C000D96EDA6ADF2A000E526E000E516E51C0D0
:1020D00059F0536854681F50D96EDA6ADF50236E86
:1020E00060008FF0F6FF200EF76E000EF86E08000D
:1020F000F550640AD8B47FEF10F081EF10F092EF42
:1021000010F060008FF0F6FF200EF76E000EF86EF4
:102110000800F550690AD8A490EF10F092EF10F083
:102120001CEF11F02050D96EDA6A020EDF26DF5C58
:10213000D96EDA6A6F0078FF24F06F0078FF25F01F
:102140001F50D96EDA6A2328DF6E200E286E25BE56
:10215000ACEF10F0AFEF10F0010EB0EF10F0000E8A
:10216000226E28062850600FD96EDA6A24C013F058
:1021700025C014F0000E166E0A0E156E06EC12F055
:1021800013C019F014C01AF00EEC14F01950300FEF
:10219000DF6E24C001F025C002F0000E046E0A0EAE
:1021A000036EA5EC11F001C024F002C025F024500C
:1021B0002510D8B4DEEF10F0E0EF10F0E8EF10F0EB
:1021C0002850D8A4E6EF10F0E8EF10F0B1EF10F0CF
:1021D0002850D8B4EEEF10F0F0EF10F011EF11F03E
:1021E0002250D8B4F6EF10F0F8EF10F011EF11F024
:1021F00028062850600FD96EDA6A2D0EDF6E11EFB7
:1022000011F02850600FD96EDA6ADF50216E21502C
:10221000036E046A1DC005F01EC006F039EC11F013
:10222000282A200E2818D8A418EF11F01AEF11F060
:1022300001EF11F038EF11F01F50D96EDA6ADF2A82
:1022400038EF11F01F50D96EDA6A6F007FFFF6FF8A
:10225000200EF76E000EF86E0800F550036E046A4B
:102260001DC005F01EC006F039EC11F01CEF11F096
:10227000120005500610D8B440EF11F042EF11F0F3
:102280004BEF11F005500610D8A449EF11F04BEFB9
:1022900011F050EF11F00350B1EC14F0A4EF11F075
:1022A00020EE09F00550D9260650DA22DE50DE1065
:1022B000D8B45DEF11F05FEF11F07AEF11F020EE7E
:1022C00009F00550D9260650DA2210EE02F005502A
:1022D000E1260650E222DE50E65CE650800A0B6EF4
:1022E000DE50800A0B58D8B078EF11F07AEF11F079
:1022F000A4EF11F020EE02F00550D9260650DA22A4
:102300006F0078FF07F06F0074FF08F0600017F0AF
:10231000D9FF60001BF0DAFF6F0078FF09F06F0053
:1023200074FF0AF007500924D96E08500A20DA6EAB
:1023300060000FF0DFFF20EE02F00550D9260650B6
:10234000DA22DE2A000EDD221200066A04BEADEF9C
:1023500011F0ABEF11F0B3EF11F0036C041ED8B025
:10236000042A010E066E02BEBAEF11F0B8EF11F0AA
:10237000C0EF11F0016C021ED8B0022A010E061A3D
:10238000000E086E000E076E03500410D8B4CBEF99
:1023900011F0CDEF11F0F5EF11F0010E056ED5EF54
:1023A00011F0D89003360436052A04AEDAEF11F0A6
:1023B000DCEF11F0D1EF11F0D8900736083603505A
:1023C000015C04500258D8A0E8EF11F0EAEF11F0D8
:1023D000EFEF11F00350015E0450025A0780D890CD
:1023E00004320332052EDCEF11F00650D8B4FBEFB7
:1023F00011F0FDEF11F001EF12F0076C081ED8B0DC
:10240000082A07C001F008C002F01200186A14BEC2
:102410000EEF12F00CEF12F014EF12F0136C141E0A
:10242000D8B0142A010E186E16BE1BEF12F019EF69
:1024300012F01FEF12F0156C161ED8B0162A1550A8
:102440001610D8B426EF12F028EF12F04CEF12F06D
:10245000010E176E30EF12F0D89015361636172A87
:1024600016AE35EF12F037EF12F02CEF12F01550D8
:10247000135C16501458D8A040EF12F042EF12F03F
:1024800046EF12F01550135E1650145AD8901632BB
:102490001532172E37EF12F01850D8B452EF12F051
:1024A00054EF12F058EF12F0136C141ED8B0142A27
:1024B00013C013F014C014F01200BA6ABB6ABC6AED
:1024C000BD6ABE6A3A01426B526B626B726B826B81
:1024D000C268C368C468FE0EC56E070EC66E40694A
:1024E00050697F0E606FFC0E706F070E806F416B3E
:1024F000516B616B716B816B43695369636973697C
:10250000070E836F44695469646974690F0E846FA0
:102510005A6B5B6B6A6B6B6B7A6B7B6B190EE86F3C
:10252000170EE56F160E186F456B466B476B556BB4
:10253000566B576B656B666B676B856B866B876BD2
:102540001200DAEC14F07BEC13F0000E016E000EBA
:10255000026EF2EC13F001C005F002C006F0C0EC10
:1025600014F0DAEC12F00DC013F00EC014F0000EEF
:10257000166E640E156E06EC12F0010E1324346E06
:10258000000E1420356E910E2E6E34C02FF035C023
:1025900030F0CDEC14F0190E336E5A0E326EB20ECE
:1025A000E82EFED7322EFCD7332EFAD7B1EF12F039
:1025B000FEEFFFF05AC001F05BC002F05CC003F018
:1025C0005DC004F02D0E056E7F0E066E950E076E33
:1025D0004C0E086E46EC13F0010E01245A6E000EEC
:1025E00002205B6E000E03205C6E000E04205D6E08
:1025F0005AC00FF05BC010F05CC011F05DC012F06B
:10260000120E08EF13F0D8901232113210320F323E
:10261000E82E03EF13F00FC00DF010C00EF0120003
:102620003D01E96BEB6BEC6BED6BEE6BEF6BF06B05
:10263000F16BB00EF26F800EF36F080EF46F820E26
:10264000F56F060EF66F2E0EF76FF86B800EF96FB2
:10265000FA6B000E016E000E026E000E036E91EC1E
:1026600014F0000E016E000E026E000E036E80EC80
:1026700014F0000E016E000E026E000E036E6FEC81
:1026800014F0000E586E000E576E1200000E096E08
:10269000000E0A6E000E0B6E000E0C6E01A053EFC2
:1026A00013F055EF13F05DEF13F0055009260650B7
:1026B0000A2207500B2208500C22D8900536063605
:1026C00007360836D8900432033202320132015004
:1026D000021003100410D8A470EF13F072EF13F07F
:1026E0004EEF13F009C001F00AC002F00BC003F076
:1026F0000CC004F012003D01D46BD66BD86BB00E49
:10270000DA6F800EDB6FDC6B820EDD6F060EDE6F24
:102710002E0EDF6FE06B800EE16FE26B000E016E3C
:10272000000E026E000E036E5EEC14F0000E016EE1
:10273000000E026E000E036E4DEC14F0000E016EE2
:10274000000E026E000E036E3CEC14F0000E566E8E
:10275000000E556E12002BC02DF0B9EF13F029C0FA
:102760001DF02AC01EF02D0E1F6E2CC020F04BEC69
:1027700010F06000B7F0F6FF200EF76E000EF86E56
:102780000800F5500009D8A4C8EF13F0CAEF13F001
:10279000AFEF13F0000E2A6E000E296E1200D29ACF
:1027A0003901A191D280000E016E000E026E000E62
:1027B000036EFCEC14F03901A591D282000E016E7B
:1027C000000E026E000E036EF5EC14F03901A79BAB
:1027D000D284000E016E000E026E000E036EEEEC4F
:1027E00014F0120001500210D8B4F9EF13F0FBEF0F
:1027F00013F009EF14F0600007F0D9FF60000BF050
:10280000DAFFFF0EDE6EFF0EDE6EFF0EDE6EFF0ED7
:10281000DD6E016802680368046812001ABE13EFD7
:1028200014F015EF14F01BEF14F019C019F01AC0D2
:102830001AF027EF14F019C01BF01AC01CF01B1E71
:102840001C1E1B4A1C2A1BC019F01CC01AF01200C7
:10285000016A3D01DFAB2FEF14F031EF14F03AEFD6
:1028600014F0DAAB36EF14F038EF14F03AEF14F05E
:10287000010E016E01501200015002100310D8B475
:1028800044EF14F046EF14F04CEF14F001C03FF0A9
:1028900002C040F003C041F01200015002100310CA
:1028A000D8B455EF14F057EF14F05DEF14F001C0F9
:1028B00042F002C043F003C044F012000150021085
:1028C0000310D8B466EF14F068EF14F06EEF14F054
:1028D00001C045F002C046F003C047F012000150AD
:1028E00002100310D8B477EF14F079EF14F07FEFF3
:1028F00014F001C048F002C049F003C04AF01200D1
:10290000015002100310D8B488EF14F08AEF14F0CD
:1029100090EF14F001C04BF002C04CF003C04DF03A
:102920001200015002100310D8B499EF14F09BEF7D
:1029300014F0A1EF14F001C04EF002C04FF003C03C
:1029400050F0120000EE60F0200EEE6AE806FDE1A5
:1029500000EE36F0280EEE6AE806FDE10001A1EF78
:1029600012F0026E28EC14F00009D8B4BAEF14F09B
:10297000BCEF14F0B2EF14F0025003EC15F01200AB
:10298000FF0E0524076EFF0E0620086E07C05AF0E2
:1029900008C05BF05C6A5D6A12002F0E316E000E9B
:1029A000296E000E2A6E2EC02BF0310E2C6EABEC71
:1029B00013F01200E5EC14F05DEC12F010EC13F0E3
:1029C0007BEC13F0CFEC13F01200600E3901D96FDD
:1029D000DB6BDD6B080EDF6FDE6B120001C036F0C3
:1029E00002C037F003C038F0120001C039F002C055
:1029F0003AF003C03BF0120001C03CF002C03DF0D1
:102A000003C03EF01200016E600007F0D2FD12001C
:020000040001F9
:04FFFC00A2EF14F06C
:020000040030CA
:0A0000008FFFF7FF9FFFFFFFFFFFD8
:00000001FF
