:0400000057EF20F0A6
:1020000000696E7465727275707400436F64653A2E
:10201000203230006D6F746F72206F6E0077726FB8
:042020006E670000E7
:104008002B102B102B102B102B102B102B102B10D0
:10401800FA102B102B102B102B102B102B102B10F1
:104028002B102B102B102B102B102B102B102B10B0
:104038002B102B102B102B102B102B102B102B10A0
:104048002B102B102B102B102B102B102B102B1090
:104058002B102B102B102B102B102B102B102B1080
:104068002B102B102B102B102B102B102B102B1070
:104078002B102B102B102B102B102B102B102B1060
:104088002B102B102B102B102B102B102B102B1050
:104098002B102B102B102B102B102B102B102B1040
:1040A8002B102B10FF0059EF24F0000E0001696F50
:1040B800000E686F3FEC25F0300E466E200E476EFE
:1040C80025C017F026C018F0000E1A6E0A0E196ED9
:1040D80056EC22F01750270FD96EDA6ADF50416E7E
:1040E80025C017F026C018F0000E1A6E0A0E196EB9
:1040F800B7EC22F01750270FD96EDA6ADF50426EFC
:10410800000E206E460E216E226A010E79EC24F014
:104118000D0E0001606FFB0EE82EFED7602FFCD756
:1041280000D0000E206E3B0E216E226A020E79EC42
:1041380024F00D0E0001606FFB0EE82EFED7602FF5
:10414800FCD700D04504D8A4ACEF20F0AEEF20F0A7
:10415800B0EF20F0F3EF21F0CAA0B5EF20F0B7EFF1
:1041680020F0E2EF20F00001684B692B0A0E681975
:104178006911D8A4C2EF20F0C4EF20F0C8EF20F0F6
:10418800000E696F000E686F6851270FD96EDA6AE2
:10419800DF50466E000E206E460E216E226A010E1A
:1041A80079EC24F0020E0001616F860E606F990EA3
:1041B800E82EFED7602FFCD7612FFAD7CCACE7EFFB
:1041C80020F0E9EF20F0A6EF20F00A0E00016803C6
:1041D8006F00CCFF60F06F00D0FF61F06903F3500F
:1041E800612760C062F061C063F0030E0001616F77
:1041F8008A0E606F550EE82EFED7602FFCD7612F10
:10420800FAD700D0000E0001696F000E686F27C052
:1042180047F0000E206E460E216E226A010E79ECE0
:1042280024F04504D8A41BEF21F01DEF21F01FEF67
:1042380021F0F3EF21F0CAA224EF21F026EF21F0BC
:1042480051EF21F00001684B692B0A0E68196911BA
:10425800D8A431EF21F033EF21F037EF21F0000E31
:10426800696F000E686F6851270FD96EDA6ADF50E0
:10427800476E000E206E460E216E226A010E79EC02
:1042880024F0020E0001616F860E606F990EE82E11
:10429800FED7602FFCD7612FFAD7CCAC56EF21F0B0
:1042A80058EF21F015EF21F0030E0001616F8A0E1F
:1042B800606F550EE82EFED7602FFCD7612FFAD716
:1042C80000D00001685162276951632325506219A3
:1042D80009E126506319D8B474EF21F076EF21F084
:1042E800AEEF21F0000E206E1D0E216E2150D8A4D5
:1042F800200E226E010E79EC24F0BC8A000E00011B
:10430800656F000E646F4504D8A48DEF21F08FEF20
:1043180021F091EF21F0F3EF21F01A0E0001606F08
:10432800F80EE82EFED7602FFCD700000001644B82
:10433800652B65BFA9EF21F0655109E13C0E645D6D
:10434800D8A0A9EF21F0ABEF21F087EF21F0BC9ABC
:10435800E4EF21F0000E206E140E216E2150D8A437
:10436800200E226E010E79EC24F0BC9E000E000196
:10437800676F000E666F4504D8A4C5EF21F0C7EF3C
:1043880021F0C9EF21F0F3EF21F00D0E0001606F6D
:10439800FB0EE82EFED7602FFCD700D00001664B3D
:1043A800672B67BFE1EF21F0675109E1C80E665D31
:1043B800D8A0E1EF21F0E3EF21F0BFEF21F0BC8EB0
:1043C800200E466E200E476E3FEC25F0820E00014F
:1043D800606FDD0EE82EFED7602FFCD700D01200EC
:1043E8006F00D8FF11F06F00DCFF12F06F00E0FFE4
:1043F80013F06F00D4FF14F0000E0A6E010E0B6E5E
:104408000B50D8A4200E0C6E010E99EC24F0BC8E33
:10441800BC9A000E166E000E156EBC8A020E106E47
:10442800860E0F6E990EE82EFED70F2EFCD7102E93
:10443800FAD70000BC9A020E106E860E0F6E990E07
:10444800E82EFED70F2EFCD7102EFAD70000154AFB
:10445800162A16BE39EF22F0165009E1030E155C34
:10446800D8A039EF22F03BEF22F011EF22F0010E35
:10447800456E3901A191A16B43EC25F0820E0F6EB8
:10448800DE0EE82EFED70F2EFCD7600053F0F5FFA6
:1044980060004FF0F8FF60004BF0F7FF600047F056
:1044A800F6FF11001C6A1ABE5EEF22F05CEF22F0E4
:1044B80064EF22F0196C1A1ED8B01A2A010E1C6E6D
:1044C80018BE6BEF22F069EF22F071EF22F0176C43
:1044D800181ED8B0182A010E1C1A000E1E6E000EE7
:1044E8001D6E19501A10D8B47CEF22F07EEF22F01E
:1044F800A6EF22F0010E1B6E86EF22F0D890193637
:104508001A361B2A1AAE8BEF22F08DEF22F082EFBB
:1045180022F0D8901D361E361950175C1A501858BC
:10452800D8A099EF22F09BEF22F0A0EF22F01950CB
:10453800175E1A50185A1D80D8901A3219321B2E3D
:104548008DEF22F01C50D8B4ACEF22F0AEEF22F081
:10455800B2EF22F01D6C1E1ED8B01E2A1DC017F027
:104568001EC018F012001C6A18BEBFEF22F0BDEF83
:1045780022F0C5EF22F0176C181ED8B0182A010EC9
:104588001C6E1ABECCEF22F0CAEF22F0D0EF22F058
:10459800196C1A1ED8B01A2A19501A10D8B4D7EFA5
:1045A80022F0D9EF22F0FDEF22F0010E1B6EE1EFB1
:1045B80022F0D89019361A361B2A1AAEE6EF22F0E6
:1045C800E8EF22F0DDEF22F01950175C1A50185866
:1045D800D8A0F1EF22F0F3EF22F0F7EF22F0195014
:1045E800175E1A50185AD8901A3219321B2EE8EF53
:1045F80022F01C50D8B403EF23F005EF23F009EFA5
:1046080023F0176C181ED8B0182A17C017F018C056
:1046180018F01200000E1A6E000E196E000E1C6EB5
:10462800000E1B6E820E176EDE0EE82EFED7172EBA
:10463800FCD7BC8A020E186E040E176EBA0EE82E4E
:10464800FED7172EFCD7182EFAD700D0BC9A1B4AD3
:104658001C2A1CBE39EF23F01C5009E1030E1B5C19
:10466800D8A039EF23F03BEF23F016EF23F0060E26
:10467800186E130E176EAE0EE82EFED7172EFCD747
:10468800182EFAD7194A1A2A1ABE53EF23F01A50CD
:1046980008E11904D8A053EF23F055EF23F012EFE7
:1046A80023F01200BC84B9EC24F0410E00016A6FBB
:1046B800EE0EE82EFED76A2FFCD70000D7EC24F0C8
:1046C8000EEC23F0BC8E820E00016A6FDD0EE82E20
:1046D800FED76A2FFCD700D0000E206E0B0E216E7D
:1046E8002150D8A4200E226E020E79EC24F0456ADF
:1046F8004504D8A482EF23F084EF23F086EF23F05B
:1047080070EF23F0060E00016B6F130E6A6FAD0E8B
:10471800E82EFED76A2FFCD76B2FFAD700D0000EF1
:10472800266E140E256E59EC20F070EF23F057EF2B
:1047380020F0B8EF23F060007BF0F6FF60007FF018
:10474800F7FF000EF86E1F0EF76403D00800F5504F
:1047580007D06F00DBFFE9FF6F00DFFFEAFFEF50D4
:1047680021EC25F01E4A1F2A60007BF0F6FF60004E
:104778007FF0F7FF000EF86E1F0EF76403D00800F5
:10478800F55007D06F00DBFFE9FF6F00DFFFEAFF9E
:10479800EF500009D8A4D3EF23F0D5EF23F09FEF13
:1047A80023F01200F1EF23F0600023F0F6FF600021
:1047B80027F0F7FF000EF86E1F0EF76403D008000D
:1047C800F55007D06F00DBFFE9FF6F00DFFFEAFF5E
:1047D800EF5030EC25F0084A092A600023F0F6FF74
:1047E800600027F0F7FF000EF86E1F0EF76403D085
:1047F8000800F55007D06F00DBFFE9FF6F00DFFF0F
:10480800EAFFEF500009D8A40CEF24F00EEF24F0D3
:10481800D8EF23F01200000E1A6E000E196E28EF62
:1048280024F0000E1C6E000E1B6E1B4A1C2A1C5026
:1048380009E1A50E1B5CD8A024EF24F026EF24F094
:1048480019EF24F0194A1A2A1750195C18501A58E7
:10485800D8A031EF24F033EF24F015EF24F0120044
:10486800000E046E000E036E4DEF24F0000E066E6F
:10487800000E056E054A062A065009E1A50E055CDC
:10488800D8A049EF24F04BEF24F03EEF24F0034A80
:10489800042A0150035C02500458D8A056EF24F0B3
:1048A80058EF24F03AEF24F01200240EF66E4A0E68
:1048B800F76E000EF86E00EE27F010EE1EF00900FD
:1048C8006F00D7FFEEFFE550E150F9E1486A476A0B
:1048D800466A456A080ED56E400ED66E000ED76E33
:1048E800000EF86E000156EF23F0236E020E2360CF
:1048F80080EF24F082EF24F08BEF24F020500F0B90
:104908008009246E2450ECEC24F092EF24F020501F
:104918000F0BC009246E2450ECEC24F021C01EF0CB
:1049280022C01FF09DEC23F012000D6E020E0D60E8
:10493800A0EF24F0A2EF24F0ABEF24F00A500F0B05
:1049480080090E6E0E50FFEC24F0B2EF24F00A50EE
:104958000F0BC0090E6E0E50FFEC24F00BC008F0D0
:104968000CC009F0D6EC23F01200D28ED28CD28A79
:10497800D280390181819181A191D76A400ED66E8A
:10498800080ED56EC268C56AC46AC368C6683E01A7
:10499800F86BF96BFA6B3A01406B506B606B706B9C
:1049A800806B51691200000E186E0F0E176E0FEC17
:1049B80024F0C56AC46A010EECEC24F0380EECEC65
:1049C80024F00C0EECEC24F0060EECEC24F01200B3
:1049D8001D6E600077F0BDFFC80E00D0E82EFDD731
:1049E800BC96BC880000BC98000E186E030E176EAB
:1049F8000FEC24F01200076E60001FF0BDFFC80E18
:104A080000D0E82EFDD7BC96BC880000BC98000EEC
:104A1800026E030E016E34EC24F012003031323392
:104A28003435363738393F065B4F666D7D077F6F03
:104A3800436F64653A20000000001D6E600077F047
:104A4800BDFFBC86BC880000BC98000E186E010E25
:104A5800176E0FEC24F01200076E60001FF0BDFF08
:104A6800BC86BC880000BC98000E026E010E016E68
:104A780034EC24F01200010EECEC24F01200010ECC
:064A8800FFEC24F0120017
:020000040030CA
:0A000000F8FFFFFF9FFFFFFFFFFF67
:00000001FF
