:0400000057EF00F0C6
:100008002B002B002B002B002B002B002B00111298
:100018002B002B002B002B002B002B002B002B0080
:100028002B002B002B002B002B002B002B002B0070
:100038002B002B002B002B002B002B002B002B0060
:100048002B002B002B002B002B002B002B002B0050
:100058002B002B002B002B002B002B002B002B0040
:100068002B002B002B002B002B002B002B002B0030
:100078002B002B002B002B002B002B002B002B0020
:100088002B002B002B002B002B002B002B002B0010
:100098002B002B002B002B002B002B002B002B0000
:0A00A8002B002B00FF00CCEF23F02B
:1020000000696E70757420766F6C746167653A0054
:102010004A61636F6200252E326600696E66006E4B
:10202000616E00205600256400000001816B31C004
:1020300084F032C085F033C086F034C087F087BFAB
:1020400026EF10F024EF10F03AEF10F0010E816F40
:1020500084C003F085C004F086C005F087C006F098
:102060003BEC25F003C084F004C085F005C086F089
:1020700006C087F0000E0001836F000E826FCFC094
:1020800071F0D0C072F08151D8B449EF10F04BEF2D
:1020900010F05FEF10F08151D8A451EF10F053EF22
:1020A00010F059EF10F0000E676F2B0E666F5DEFAA
:1020B00010F0000E676F2D0E666F66C081F084C051
:1020C00003F085C004F086C005F087C006F06EEC12
:1020D00020F003040410D8A470EF10F072EF10F099
:1020E000A1EF10F000018151D8B479EF10F07BEF2F
:1020F00010F084EF10F081C000F17107D8A07207D2
:10210000000E836F010E826F000E8225036E010E9A
:102110008321046E1B0E056E70EC24F00001FD0E91
:102120007127FF0E722330C011F0000E126E010EE7
:10213000136E71C014F072C015F06CEC23F007EF51
:1021400015F084C003F085C004F086C005F087C098
:1021500006F06EEC20F003500410D8A4B2EF10F09B
:10216000B4EF10F0D2EF10F000018151D8B4BBEF02
:1021700010F0BDEF10F0C6EF10F081C000F1710754
:10218000D8A07207000E836F010E826F000E8225A9
:10219000036E010E8321046E1F0E056E70EC24F099
:1021A0008EEF10F0000E0001886F000E896F800E18
:1021B0008A6F3F0E8B6F000E706F000E6F6F84C0C2
:1021C00003F085C004F086C005F087C006F0000E5D
:1021D000076E000E086E000E096E000E0A6E57ECB8
:1021E00022F0D8B0F6EF10F0F8EF10F0D7EF11F0C2
:1021F00005EF11F073C088F074C089F075C08AF0E3
:1022000076C08BF000016F4B702B88C003F089C043
:1022100004F08AC005F08BC006F0000E076E000EB9
:10222000086E200E096E410E0A6E63EC17F003C0B3
:1022300073F004C074F005C075F006C076F00001BC
:102240007351845D036E74518559046E75518659BE
:10225000056E76518759066EF7EC23F006BE3CEF0B
:1022600011F006500510041009E1020E035CD8A01D
:102270003CEF11F03EEF11F0FAEF10F073C01CF0DC
:1022800074C01DF075C01EF076C01FF084C020F031
:1022900085C021F086C022F087C023F0ECEC1FF04F
:1022A000D8A055EF11F057EF11F0FAEF10F0000140
:1022B0008851845D036E89518559046E8A5186590F
:1022C000056E8B518759066EF7EC23F006BE76EF4C
:1022D00011F006500510041007E1020E035CD8B09F
:1022E00074EF11F076EF11F0BEEF11F088C084F0BA
:1022F00089C085F08AC086F08BC087F0D7EF11F0D7
:1023000088C003F089C004F08AC005F08BC006F0D5
:10231000000E076E000E086E200E096E410E0A6E4A
:1023200088EC19F003C088F004C089F005C08AF079
:1023300006C08BF000016F07D8A070078851845D3C
:10234000036E89518559046E8A518659056E8B51E9
:102350008759066EF7EC23F006BEBCEF11F006506D
:102360000510041007E1020E035CD8B0BAEF11F0BB
:10237000BCEF11F0BEEF11F076EF11F084C01CF04D
:1023800085C01DF086C01EF087C01FF088C020F0F9
:1023900089C021F08AC022F08BC023F0ECEC1FF042
:1023A000D8A0D5EF11F0D7EF11F080EF11F035C0C4
:1023B00069F069C06AF00001D2BFE1EF11F0E3EF0C
:1023C00011F0E9EF11F0D1C062F0D2C063F0EDEF8F
:1023D00011F0000E636F060E626F62C06DF063C095
:1023E0006EF06D4B6E2B660E6A19D8A4FAEF11F0E1
:1023F000FCEF11F01CEF12F070BF03EF12F001EFD1
:1024000012F00FEF12F0000E886F000E896F800E31
:102410008A6F3F0E8B6F000E706F000E6F6F670E2E
:102420006919D8B416EF12F018EF12F01CEF12F081
:102430006F516D2770516E23000E786F000E776F0D
:1024400084C079F085C07AF086C07BF087C07CF0CC
:1024500088C073F089C074F08AC075F08BC076F0C4
:10246000ADEF12F079C003F07AC004F07BC005F044
:102470007CC006F088C007F089C008F08AC009F067
:102480008BC00AF088EC19F003C01CF004C01DF0EA
:1024900005C01EF006C01FF09CEC1CF01CC07DF0B7
:1024A0001DC07EF01EC07FF01FC080F07DC003F015
:1024B0007EC004F07FC005F080C006F069EC1FF01C
:1024C00003C06BF004C06CF079C01CF07AC01DF042
:1024D0007BC01EF07CC01FF07DC007F07EC008F0FE
:1024E0007FC009F080C00AF088C003F089C004F002
:1024F0008AC005F08BC006F063EC17F003C020F033
:1025000004C021F005C022F006C023F093EC24F0B3
:102510001CC079F01DC07AF01EC07BF01FC07CF09B
:1025200088C003F089C004F08AC005F08BC006F0B3
:10253000000E076E000E086E200E096E410E0A6E28
:1025400088EC19F003C088F004C089F005C08AF057
:1025500006C08BF00001774B782B6D51775D785179
:10256000800A366E6E51800A3658D8A0BAEF12F043
:10257000BCEF12F032EF12F088C003F089C004F013
:102580008AC005F08BC006F0000E076E000E086EC4
:10259000A00E096E400E0A6E63EC17F003C07DF0CA
:1025A00004C07EF005C07FF006C080F079C01CF04A
:1025B0007AC01DF07BC01EF07CC01FF07DC020F0F3
:1025C0007EC021F07FC022F080C023F0ECEC1FF031
:1025D000D8B0EDEF12F0EFEF12F0FAEF12F0000EBC
:1025E00000017D6F000E7E6F000E7F6F000E806F0A
:1025F00023EF13F079C003F07AC004F07BC005F03C
:102600007CC006F07DC007F07EC008F07FC009F0F6
:1026100080C00AF057EC22F0D8A011EF13F013EFAE
:1026200013F023EF13F000016BB119EF13F01BEF60
:1026300013F023EF13F0000E7D6F000E7E6F000E7F
:102640007F6F000E806F84C003F085C004F086C0E9
:1026500005F087C006F07DC007F07EC008F07FC09F
:1026600009F080C00AF008EC15F003C079F004C04E
:102670007AF005C07BF006C07CF079C01CF07AC00F
:102680001DF07BC01EF07CC01FF0000E076E000E18
:10269000086E200E096E410E0A6E73C003F074C0FE
:1026A00004F075C005F076C006F063EC17F003C0C7
:1026B00020F004C021F005C022F006C023F0ECECAD
:1026C0001FF0D8A066EF13F068EF13F091EF13F04E
:1026D00000016F4B702B73C003F074C004F075C021
:1026E00005F076C006F0000E076E000E086E200E94
:1026F000096E410E0A6E63EC17F003C073F004C05C
:1027000074F005C075F006C076F0660E00016A1917
:10271000D8A48DEF13F08FEF13F091EF13F06D4B02
:102720006E2B73C088F074C089F075C08AF076C0D3
:102730008BF06FC060F070C061F00001686B000E3C
:10274000656F000E646F000E786F000E776F8EEF6E
:1027500014F079C003F07AC004F07BC005F07CC0AF
:1027600006F088C007F089C008F08AC009F08BC065
:102770000AF088EC19F003C01CF004C01DF005C07D
:102780001EF006C01FF09CEC1CF01CC07DF01DC0AC
:102790007EF01EC07FF01FC080F07DC003F07EC0C1
:1027A00004F07FC005F080C006F069EC1FF004BEA5
:1027B000E5EF13F0045007E10A0E035CD8B0E3EF35
:1027C00013F0E5EF13F0F5EF13F07DC003F07EC0DA
:1027D00004F07FC005F080C006F069EC1FF003C074
:1027E0006BF004C06CF0FAEF13F0000E00016C6F98
:1027F000090E6B6F00016851D8A401EF14F003EFCC
:1028000014F02BEF14F061BF0AEF14F008EF14F08E
:102810002BEF14F0000E8225D96E010E8321DA6EA3
:102820002E0EDF6E824B832B7107D8A07207010E2C
:10283000686F2BEF14F0000E8225D96E010E8321F4
:10284000DA6E300EDF6E824B832B7107D8A07207D1
:102850006407D8A0650764516511D8A432EF14F05D
:1028600034EF14F01BEF14F0000E8225D96E010E28
:102870008321DA6E6B51300FDF6E824B832B710731
:10288000D8A0720779C01CF07AC01DF07BC01EF082
:102890007CC01FF07DC007F07EC008F07FC009F04B
:1028A00080C00AF088C003F089C004F08AC005F037
:1028B0008BC006F063EC17F003C020F004C021F0D9
:1028C00005C022F006C023F093EC24F01CC079F080
:1028D0001DC07AF01EC07BF01FC07CF088C003F0E2
:1028E00089C004F08AC005F08BC006F0000E076EA8
:1028F000000E086E200E096E410E0A6E88EC19F06B
:1029000003C088F004C089F005C08AF006C08BF0CF
:1029100000016007D8A06107774B782B6D51775D78
:102920007851800A366E6E51800A3658D8B09BEFC7
:1029300014F09DEF14F0ABEF14F083BFA9EF14F087
:10294000835109E14B0E825DD8A0A9EF14F0ABEFE3
:1029500014F0A9EF13F0000E786F4F0E776F000E92
:102960007725D96E010E7821DA6EDF6A000E366E99
:10297000010E376E8251365E8351375A77513624B5
:10298000036E78513720046E000E056E010E066E40
:1029900082C007F083C008F09FEC23F00001825151
:1029A000775D826F83517859836F8151D8A4DBEFB3
:1029B00014F0DEEF14F0010EDFEF14F0000E776F6D
:1029C000786B8151D8B4E7EF14F0E9EF14F0F5EF2C
:1029D00014F08207D8A08307000E8225D96E010E5D
:1029E0008321DA6E600007F2DFFF7751715F785163
:1029F000725B30C011F0000E8225126E010E832131
:102A0000136E71C014F072C015F06CEC23F012005C
:102A10000650800B0F6E06500624116E05AE13EFA4
:102A200015F015EF15F016EF15F011801150D8B410
:102A30001CEF15F01EEF15F032EF15F01128D8A499
:102A400024EF15F026EF15F02EEF15F0000E036EB3
:102A5000000E046E000E056E000E066E058E066AF0
:102A60003AEF15F0000E036E000E046E000E056EB8
:102A7000000E066E0A50800B106E0F501018D8B45E
:102A800044EF15F046EF15F047EF15F00F8C0A50A4
:102A90000A24106E09AE4FEF15F051EF15F052EF0A
:102AA00015F010801050D8B458EF15F05AEF15F00B
:102AB0006EEF15F01028D8A460EF15F062EF15F056
:102AC0006AEF15F0000E076E000E086E000E096E1C
:102AD000000E0A6E098E0A6A76EF15F0000E076E78
:102AE000000E086E000E096E000E0A6E1150105C8A
:102AF000D8B07DEF15F07FEF15F0A6EF15F00FAC15
:102B000084EF15F086EF15F088EF15F0800E0F1AA0
:102B100011C012F010C011F012C010F003C012F07A
:102B200007C003F012C007F004C012F008C004F0A0
:102B300012C008F005C012F009C005F012C009F07B
:102B400006C012F00AC006F012C00AF0126A115054
:102B500010C00BF00C6A0B5E000E0C5A0CBEBAEFE4
:102B600015F00C5009E11A0E0B5CD8A0BAEF15F065
:102B7000BCEF15F0F3EF15F003500410051006102C
:102B8000D8A4C5EF15F0C8EF15F0010EC9EF15F088
:102B9000000E126E000E036E000E046E000E056E27
:102BA000000E066E10C011F0FCEF15F012A0DBEF66
:102BB00015F0DDEF15F0E3EF15F0D89012300109B4
:102BC000126EE5EF15F0D890123203A0EAEF15F07F
:102BD000ECEF15F0EDEF15F0128E063406320532EB
:102BE00004320332112A1050115CD8A0FAEF15F00C
:102BF000FCEF15F0D6EF15F00FBC01EF16F003EF68
:102C000016F043EF16F01150D8A409EF16F00BEFB1
:102C100016F015EF16F0000E036E000E046E000E97
:102C2000056E000E066E62EF17F00750032608507F
:102C30000422095005220A50062206A022EF16F0AF
:102C400024EF16F0D0EF16F012A029EF16F02BEFBC
:102C500016F031EF16F0D89012300109126E33EFF2
:102C600016F0D890123203A038EF16F03AEF16F0B3
:102C70003BEF16F0128E0634063205320432033270
:102C8000112AD0EF16F00750035C08500458095081
:102C900005580650800A0B6E0A50800A0B58D8B0AF
:102CA00054EF16F056EF16F081EF16F00350075C64
:102CB0000B6E045008580C6E055009580D6E0650E6
:102CC0000A580E6EFF0E0B24036EFF0E0C20046ECE
:102CD000FF0E0D20056EFF0E0E20066E800E0F1AE1
:102CE000126C1250D8A477EF16F079EF16F089EF36
:102CF00016F0010E0326000E04220522062289EF9B
:102D000016F00750035E0850045A0950055A0A503D
:102D1000065A0350041005100610D8A492EF16F0BE
:102D200094EF16F0C9EF16F01250D8A49AEF16F0EF
:102D30009CEF16F0C9EF16F0000E036E000E046E45
:102D4000000E056E000E066E62EF17F0D890033687
:102D500004360536063612AEB0EF16F0B2EF16F0B6
:102D6000B3EF16F0038012A0B8EF16F0BAEF16F02A
:102D7000BEEF16F0D8801236C0EF16F0D89012369B
:102D80001150D8B4C6EF16F0C8EF16F0C9EF16F020
:102D9000110605AECEEF16F0D0EF16F0A6EF16F046
:102DA000106A12AED6EF16F0D8EF16F0F0EF16F06C
:102DB00012C00BF07F0E0B16D8B4E1EF16F0E3EF64
:102DC00016F0E7EF16F0010E106EF0EF16F003A00C
:102DD000ECEF16F0EEEF16F0F0EF16F0E3EF16F072
:102DE0001050D8B4F6EF16F0F8EF16F023EF17F006
:102DF000010E0326000E04220522062206A003EF80
:102E000017F005EF17F023EF17F003C00BF004C025
:102E10000CF005C00DF006C00EF00E340E320D326F
:102E20000C320B320BC003F00CC004F00DC005F0E7
:102E30000EC006F01128D8B420EF17F022EF17F0DB
:102E400023EF17F0112A1128D8B429EF17F02BEF30
:102E500017F033EF17F01150D8A431EF17F033EF1C
:102E600017F044EF17F0000E036E000E046E000E14
:102E7000056E000E066E1150D8A441EF17F043EF17
:102E800017F044EF17F00F6A11A049EF17F04BEF5E
:102E900017F04EEF17F0058E4FEF17F0059ED89004
:102EA0001130066E0FAE57EF17F059EF17F05AEFCB
:102EB00017F0068E03C003F004C004F005C005F04F
:102EC00006C006F012000650800B0F6E0650062456
:102ED000156E05AE6EEF17F070EF17F071EF17F08B
:102EE00015801550D8B477EF17F079EF17F08CEF05
:102EF00017F01528D8A47FEF17F081EF17F089EFAE
:102F000017F0000E036E000E046E000E056E000E2C
:102F1000066E058E94EF17F0000E036E000E046E21
:102F2000000E056E000E066E0A50800B0F1A0A5036
:102F30000A24146E09AE9FEF17F0A1EF17F0A2EF6D
:102F400017F014801450D8B4A8EF17F0AAEF17F0B8
:102F5000BDEF17F01428D8A4B0EF17F0B2EF17F0B8
:102F6000BAEF17F0000E076E000E086E000E096E25
:102F7000000E0A6E098EC5EF17F0000E076E000EE8
:102F8000086E000E096E000E0A6E1450D8B4CBEF16
:102F900017F0CDEF17F0D5EF17F01550D8A4D3EFF9
:102FA00017F0D5EF17F0DFEF17F0000E036E000EED
:102FB000046E000E056E000E066E87EF19F00950C4
:102FC00003026F00CCFF1AF06F00D0FF1BF01A5005
:102FD000106E116A126A136A1B50166E176A186A0D
:102FE000196A085004026F00CCFF1AF06F00D0FF7E
:102FF0001BF01A501026000E1122122213221B5011
:103000001626000E172218221922075005026F00FB
:10301000CCFF1AF06F00D0FF1BF01A501026000EE4
:103020001122122213221B501626000E17221822DC
:10303000192212C013F011C012F010C011F0106A62
:10304000075004026F00CCFF1AF06F00D0FF1BF096
:103050001A5010261B501122000E1222000E1322AD
:10306000085003026F00CCFF1AF06F00D0FF1BF076
:103070001A5010261B501122000E1222000E13228D
:1030800012C013F011C012F010C011F0106A0750F6
:1030900003026F00CCFF1AF06F00D0FF1BF01A5034
:1030A00010261B501122000E1222000E132209506E
:1030B00004026F00CCFF1AF06F00D0FF1BF01A5013
:1030C00016261B501722000E1822000E1922085037
:1030D00005026F00CCFF1AF06F00D0FF1BF01A50F2
:1030E00016261B501722000E1822000E1922095016
:1030F00005026F00CCFF1AF06F00D0FF1BF01A50D2
:103100000B6E1B500C6E0D6A0E6A0DC00EF00CC0DB
:103110000DF00BC00CF00B6A0B5016260C5017224A
:103120000D5018220E50192210C00BF011C00CF0D7
:1031300012C00DF013C00EF0190EA4EF18F0D890C5
:103140000E320D320C320B32E82E9FEF18F00B507E
:1031500016260C5017220D5018220E50192212C09C
:1031600013F011C012F010C011F0106A145015C005
:103170000BF00C6A0B26000E0C22820E0B241A6E2A
:10318000FF0E0C201B6EDAEF18F0D89016361736AB
:103190001836193613AECFEF18F0D1EF18F0D2EF82
:1031A00018F01680D89010361136123613361A06DB
:1031B000D8A01B0618AEDFEF18F0E1EF18F0C5EF4E
:1031C00018F0146A13AEE7EF18F0E9EF18F00DEFFE
:1031D00019F0FF0E10140B6EFF0E11140C6EFF0E83
:1031E00012140D6E7F0E13140E6E0B500C100D107A
:1031F0000E10D8B4FEEF18F000EF19F004EF19F03C
:10320000010E146E0DEF19F016A009EF19F00BEF77
:1032100019F00DEF19F000EF19F01450D8B413EFB6
:1032200019F015EF19F039EF19F0010E1626000EFE
:1032300017221822192219A020EF19F022EF19F0F5
:1032400039EF19F016C00BF017C00CF018C00DF0D4
:1032500019C00EF00E340E320D320C320B320BC090
:1032600016F00CC017F00DC018F00EC019F01A4A75
:103270001B2A1BBE44EF19F01B5008E11A28D8A0E6
:1032800044EF19F046EF19F050EF19F0000E166EEA
:10329000000E176E800E186E7F0E196E7DEF19F0FE
:1032A0001BBE5DEF19F01B5006E11A04D8B05BEFAE
:1032B00019F05DEF19F068EF19F0000E166E000EB0
:1032C000176E000E186E000E196E0F6A7DEF19F062
:1032D0001AC015F0FF0E1616FF0E17167F0E1816E1
:1032E000000E191615A077EF19F079EF19F07AEFA3
:1032F00019F0188ED8901530196E0F50191216C08B
:1033000003F017C004F018C005F019C006F0120051
:103310000650800B136E065006241A6E05AE93EF0E
:1033200019F095EF19F096EF19F01A801A50D8B4E9
:103330009CEF19F09EEF19F0B2EF19F01A28D8A4FB
:10334000A4EF19F0A6EF19F0AEEF19F0000E036E1E
:10335000000E046E000E056E000E066E058E066AE7
:10336000BAEF19F0000E036E000E046E000E056E2B
:10337000000E066E0A50800B131A0A500A241B6EA8
:1033800009AEC5EF19F0C7EF19F0C8EF19F01B80AF
:103390001B50D8B4CEEF19F0D0EF19F0E4EF19F0CC
:1033A0001B28D8A4D6EF19F0D8EF19F0E0EF19F0E8
:1033B000000E076E000E086E000E096E000E0A6EFB
:1033C000098E0A6AECEF19F0000E076E000E086E07
:1033D000000E096E000E0A6E0750081009100A1040
:1033E000D8A4F5EF19F0F7EF19F00FEF1AF0000E6F
:1033F000036E000E046E000E056E000E066E800E4B
:1034000005127F0E06121350061203C003F004C00B
:1034100004F005C005F006C006F04FEF1BF01A508F
:10342000D8A415EF1AF017EF1AF021EF1AF0000EDA
:10343000036E000E046E000E056E000E066E4FEF5A
:103440001BF01B501AC00BF00C6A0B5E000E0C5ADE
:103450007F0E0B24146E000E0C20156E03C00FF0AF
:1034600004C010F005C011F006C012F0000E036E8B
:10347000000E046E000E056E000E066E000E166E37
:10348000000E176E000E186E000E196E1B6A81EF8B
:103490001AF01B50D8B44FEF1AF051EF1AF068EF42
:1034A0001AF0D8900F36103611361236D8900336EF
:1034B00004360536063619AE60EF1AF062EF1AF0E0
:1034C00063EF1AF00380D89016361736183619367F
:1034D00007500F5C08501058095011580A501258E4
:1034E000D8A075EF1AF077EF1AF080EF1AF0198C68
:1034F00007500F5E0850105A0950115A0A50125ABC
:103500001B2A190E1B6487EF1AF089EF1AF049EF96
:103510001AF00F50101011101210D8B492EF1AF0C8
:1035200094EF1AF0ACEF1AF01680ACEF1AF0D890C6
:10353000033604360536063619AEA1EF1AF0A3EFAE
:103540001AF0A4EF1AF00380D89016361736183602
:1035500019361406D8A0150605AEB1EF1AF0B3EF70
:103560001AF097EF1AF01B6A19AEB9EF1AF0BBEF19
:103570001AF0DFEF1AF0FF0E16140B6EFF0E171481
:103580000C6EFF0E18140D6E7F0E19140E6E0B507C
:103590000C100D100E10D8B4D0EF1AF0D2EF1AF0B4
:1035A000D6EF1AF0010E1B6EDFEF1AF003A0DBEF6F
:1035B0001AF0DDEF1AF0DFEF1AF0D2EF1AF01B501D
:1035C000D8B4E5EF1AF0E7EF1AF00BEF1BF0010E9D
:1035D0000326000E04220522062206A0F2EF1AF0AE
:1035E000F4EF1AF00BEF1BF003C00BF004C00CF06B
:1035F00005C00DF006C00EF00E340E320D320C3246
:103600000B320BC003F00CC004F00DC005F00EC06F
:1036100006F0144A152A15BE16EF1BF0155008E1E6
:103620001428D8A016EF1BF018EF1BF023EF1BF0A7
:10363000000E156E1468000E036E000E046E000E70
:10364000056E000E066E15BE30EF1BF0155006E13C
:103650001404D8B02EEF1BF030EF1BF03DEF1BF041
:10366000000E156E000E146E000E036E000E046E3A
:10367000000E056E000E066E136A14C01AF01AA032
:1036800044EF1BF046EF1BF049EF1BF0058E4AEFAD
:103690001BF0059ED8901A30066E03EF1AF0120048
:1036A0003950D96EDA6A6F007FFFF6FF200EF76E91
:1036B000000EF86E0800F550250AD8A462EF1BF042
:1036C00064EF1BF087EF1CF03950D96EDA6ADF2AFD
:1036D000000E0001D06F000ECF6FCFC05CF0D1693B
:1036E000D2693950D96EDA6A6F007FFFF6FF200E7B
:1036F000F76E000EF86E0800F5502E0AD8A483EF7E
:103700001BF085EF1BF093EF1BF03950D96EDA6A8E
:10371000DF2A39C003F03AC004F04EEC21F003C0B8
:10372000D1F004C0D2F03950D96EDA6ADF50416E60
:10373000600007F1F6FF200EF76E000EF86E08002D
:10374000F550640AD8B4A7EF1BF0A9EF1BF0BAEF4D
:103750001BF0600007F1F6FF200EF76E000EF86E0A
:103760000800F550690AD8A4B8EF1BF0BAEF1BF0B7
:10377000D7EF1BF03A50D96EDA6A020EDF26DF5C13
:10378000D96EDA6A6F0078FF3CF06F0078FF3DF089
:103790003950D96EDA6A4128DF6E38C019F03CC062
:1037A0001AF03DC01BF0ACEC1EF09BEF1CF0395042
:1037B000D96EDA6ADF50416E600007F1F6FF200E25
:1037C000F76E000EF86E08006F00D4FF40F0F3EFC4
:1037D0001BF0412A02EF1CF06C0E406E02EF1CF051
:1037E000406A02EF1CF040504C0AD8B4E9EF1BF0DD
:1037F0002A0AD8B4ECEF1BF00A0AD8B4E9EF1BF0A0
:10380000F0EF1BF0600007F1F6FF200EF76E000EE0
:10381000F86E0800F550660AD8A411EF1CF013EFFB
:103820001CF081EF1CF047EF1CF03A50D96EDA6AB9
:103830006F007CFF3BF0040EDF263B50D96EDA6A46
:103840006F0078FF3CF06F0078FF3DF06F0078FF6D
:103850003EF06F0078FF3FF052EF1CF03A50D96E07
:10386000DA6A6F007CFF3BF0040EDF263B50D96E16
:10387000DA6A6F0078FF3CF06F0078FF3DF06F0070
:1038800078FF3EF06F0078FF3FF052EF1CF04050A1
:103890004C0AD8B42EEF1CF0200AD8B415EF1CF057
:1038A00052EF1CF03950D96EDA6A4128DF6E72EFA0
:1038B0001CF038C030F03CC031F03DC032F03EC0AA
:1038C00033F03FC034F0600007F1F6FF200EF76ED2
:1038D000000EF86E08006F00D4FF35F015EC10F004
:1038E0009BEF1CF0600007F1F6FF200EF76E000E54
:1038F000F86E0800F550660AD8B459EF1CF081EF55
:103900001CF03950D96EDA6ADF2A9BEF1CF039506F
:10391000D96EDA6A6F007FFFF6FF200EF76E000E99
:10392000F86E0800F550036E046A38C005F001EC2B
:1039300022F081EF1CF0120054C02CF055C02DF085
:1039400056C02EF057C02FF01CC02CF01DC02DF01B
:103950001EC02EF01FC02FF0810E206EFF0E216EB4
:103960002CC022F02DC023F02EC024F02FC025F053
:10397000180EC0EF1CF0D8902532243223322232A8
:10398000E82EBBEF1CF0225020242A6E000E2120CE
:103990002B6E2BBED5EF1CF02B5009E1170E2A5CC5
:1039A000D8A0D5EF1CF0D7EF1CF0E1EF1CF01CC045
:1039B0001CF01DC01DF01EC01EF01FC01FF0A4EFA4
:1039C0001DF02BBEE6EF1CF0E8EF1CF058EF1DF0E9
:1039D0002AC020F0FF0E216EFF0E226E7F0E236E96
:1039E000000E246E2066F7EF1CF0FFEF1CF024346D
:1039F0002432233222322132202EF2EF1CF021C059
:103A000026F022C027F023C028F024C029F0265039
:103A10002C14206E27502D14216E28502E14226E47
:103A200029502F14236E2050211022102310D8A4C7
:103A30001CEF1DF01EEF1DF020EF1DF0D7EF1CF066
:103A40002CC020F02DC021F02EC022F02FC023F07A
:103A5000200E30EF1DF0D890233222322132203256
:103A6000E82E2BEF1DF02050211022102310D8B487
:103A70003CEF1DF03EEF1DF046EF1DF026502C26CA
:103A800027502D2228502E2229502F22261C206E0E
:103A9000271C216E281C226E291C236E20502C16F8
:103AA00021502D1622502E1623502F169CEF1DF05C
:103AB0002CC020F02DC021F02EC022F02FC023F00A
:103AC000200E68EF1DF0D8902332223221322032AE
:103AD000E82E63EF1DF02050211022102310D8A4EF
:103AE00074EF1DF076EF1DF080EF1DF0000E2C6ED0
:103AF000000E2D6E000E2E6E000E2F6E9CEF1DF030
:103B0000D8902C34206E2D34216E2E34226E2F341A
:103B1000236E2050211022102310D8B492EF1DF0F4
:103B200094EF1DF09CEF1DF0000E2C6E000E2D6E1C
:103B3000800E2E6EBF0E2F6E2CC01CF02DC01DF0FF
:103B40002EC01EF02FC01FF0120020EEBBF010EEB2
:103B5000A1F0130E6F006FFFE3FFE806FBE2000E1B
:103B60000001BA6F000EB96F3901DC8D020EDF6FF4
:103B70003A01506BC36ACB6AFEEC25F02CEC26F0C0
:103B8000F0EC25F009EC26F0A1C003F0A2C004F08F
:103B90008CEC25F0A1C003F0A2C004F0000E04BE1E
:103BA000FF0E056E066E640E076E000E086E000EA8
:103BB000096E000E0A6E37EC23F003C00FF004C04C
:103BC00010F005C011F006C012F0AB50526E536AEF
:103BD000D89052365336D89052365336040E522669
:103BE000000E532252C013F053C014F0000E14BE46
:103BF000FF0E156E166EACEC22F00FC0B7F010C0C1
:103C0000B8F0AC5028EC26F0920E00018C6F260E16
:103C10008D6FB7C08EF0B8C08FF057EC25F0000E56
:103C20000C6E920E0D6E0E6A020E1BEC25F01EEC51
:103C300026F0526E52500001B56FB66BB5B102D08E
:103C4000CB9401D0CB84CEA228EF1EF02AEF1EF039
:103C500017EF1EF00001B94BBA2B0A0EB919BA11B1
:103C6000D8A435EF1EF037EF1EF03BEF1EF0000E2C
:103C7000BA6F000EB96FB951020DF350A10FD96E92
:103C8000DA6A6F0078FF03F06F0074FF04F0000E33
:103C900004BEFF0E056E066E640E076E000E086E03
:103CA000000E096E000E0A6E37EC23F003C00FF011
:103CB00004C010F005C011F006C012F0AB50526EF7
:103CC000536AD89052365336D89052365336040E33
:103CD0005226000E532252C013F053C014F0000EAF
:103CE00014BEFF0E156E166EACEC22F00FC0B7F0CE
:103CF00010C0B8F00001B951020DF350A10FD96EF8
:103D0000DA6A6F0078FF03F06F0074FF04F08CEC48
:103D100025F028EC26F0920E00018C6F260E8D6F98
:103D2000B7C08EF0B8C08FF057EC25F0000E0C6EC7
:103D3000920E0D6E0E6A020E1BEC25F0060E536EEF
:103D4000130E526EAE0EE82EFED7522EFCD7532E17
:103D5000FAD717EF1EF012001BBEB1EF1EF0B4EF42
:103D60001EF0010EB5EF1EF0000E226E0001D2BF54
:103D7000BEEF1EF0BCEF1EF0C4EF1EF0000E216E71
:103D8000010E206EC8EF1EF0D1C020F0D2C021F08D
:103D9000CFC01EF0D0C01FF02250D8B4D2EF1EF01A
:103DA000D4EF1EF0EBEF1EF01E06D8A01F06225027
:103DB000D8A4DDEF1EF0DFEF1EF0E5EF1EF0000EE1
:103DC0001D6E2B0E1C6EE9EF1EF0000E1D6E2D0EEB
:103DD0001C6E1CC022F0000E246E4F0E236E0101DB
:103DE0004F6B23EF1FF02306D8A02406000E2324D8
:103DF000D96E010E2420DA6E1AC003F01BC004F045
:103E0000000E066E0A0E056EAAEC21F003C009F042
:103E100004C00AF072EC25F00950300FDF6E200666
:103E2000D8A021061E06D8A01F061AC003F01BC08A
:103E300004F0000E066E0A0E056EEDEC20F003C0D5
:103E40001AF004C01BF024BE2EEF1FF0245008E12E
:103E50002304D8A02EEF1FF030EF1FF046EF1FF025
:103E60001A501B10D8A437EF1FF039EF1FF0F3EFF3
:103E70001EF021BE46EF1FF0215006E12004D8B00D
:103E800044EF1FF046EF1FF0F3EF1EF02250D8B4BE
:103E90004CEF1FF04EEF1FF05AEF1FF02306D8A093
:103EA0002406000E2324D96E010E2420DA6E600051
:103EB0008BF0DFFF19C011F0000E2324126E010EEB
:103EC0002420136E1EC014F01FC015F06CEC23F0FC
:103ED0001200053406340C6E0C50D8A472EF1FF09B
:103EE00074EF1FF07EEF1FF0000E036E000E046EE5
:103EF000000E056E000E066EEBEF1FF003C007F01C
:103F000004C008F005C009F006C00AF0200E8EEFCC
:103F10001FF0D8900A32093208320732E82E89EFB2
:103F20001FF007500B6E058EFF0E0316FF0E0416D2
:103F3000FF0E0516000E0616960E0C5E0CBEA5EFC3
:103F40001FF0A3EF1FF0BBEF1FF00C50800A970F7C
:103F5000D8B0ADEF1FF0AFEF1FF0B1EF1FF074EF6F
:103F60001FF0D89006320532043203320C3EB1EF16
:103F70001FF0D3EF1FF01F0E0C64C1EF1FF0C3EF53
:103F80001FF0CBEF1FF074EF1FF0D890033604360C
:103F9000053606360C060C50D8A4D1EF1FF0D3EF2F
:103FA0001FF0C5EF1FF00B50D8B4D9EF1FF0DBEFB7
:103FB0001FF0E3EF1FF0061E051E041E036C000E2B
:103FC00004220522062203C003F004C004F005C049
:103FD00005F006C006F01200000E1C14246E000E40
:103FE0001D14256E800E1E14266E7F0E1F14276E64
:103FF0002450251026102710D8A401EF20F003EF3D
:1040000020F00BEF20F0000E1C6E000E1D6E000E57
:104010001E6E000E1F6E000E2014246E000E211462
:10402000256E800E2214266E7F0E2314276E2450D8
:10403000251026102710D8A420EF20F022EF20F022
:104040002AEF20F0000E206E000E216E000E226E70
:10405000000E236E1FAE2FEF20F031EF20F03AEF6D
:1040600020F01C6C1D1ED8B01D2A1E1ED8B01E2AA2
:10407000800E1F5623AE3FEF20F041EF20F04AEFB5
:1040800020F0206C211ED8B0212A221ED8B0222A6E
:10409000800E2356000E1C1A000E1D1A000E1E1A4A
:1040A000800E1F1A000E201A000E211A000E221A6E
:1040B000800E231A20501C5C21501D5822501E587F
:1040C00023501F58D8B067EF20F069EF20F06CEF55
:1040D00020F0D8906DEF20F0D880120058C00DF07D
:1040E00059C00EF05AC00FF05BC010F003C00DF0C5
:1040F00004C00EF005C00FF006C010F00DC007F0B0
:104100000EC008F00FC009F010C00AF0180E8EEFB4
:1041100020F0D8900A32093208320732E82E89EFAF
:1041200020F007500B6E0C6A0B500C10D8A49BEFBC
:1041300020F09DEF20F0BDEF20F0D8900D34076EF9
:104140000E34086E0F34096E10340A6E07500810D2
:1041500009100A10D8A4AFEF20F0B1EF20F0B7EFAC
:1041600020F0000E046E020E036EECEF20F0000E45
:10417000046E030E036EECEF20F00B280C10D8A495
:10418000C4EF20F0C6EF20F0E8EF20F00DC007F0FC
:104190000EC008F00FC009F010C00AF0090ED89048
:1041A0000736083609360A36E82ECFEF20F00750DA
:1041B000081009100A10D8B4E0EF20F0E3EF20F067
:1041C000010EE4EF20F0000E036E046AECEF20F025
:1041D000000E046E040E036E1200086A06BEF5EFB0
:1041E00020F0F3EF20F0FBEF20F0056C061ED8B0B6
:1041F000062A010E086E04BE02EF21F000EF21F046
:1042000008EF21F0036C041ED8B0042A010E081A2E
:10421000000E0A6E000E096E05500610D8B413EF9A
:1042200021F015EF21F03DEF21F0010E076E1DEF9B
:1042300021F0D89005360636072A06AE22EF21F087
:1042400024EF21F019EF21F0D89009360A360550F5
:10425000035C06500458D8A030EF21F032EF21F073
:1042600037EF21F00550035E0650045A0980D890BC
:1042700006320532072E24EF21F00850D8B443EF60
:1042800021F045EF21F049EF21F0096C0A1ED8B06A
:104290000A2A09C003F00AC004F01200000E096ED9
:1042A000000E086E0350D96EDA6A6F007FFFF6FFCA
:1042B000200EF76E000EF86E0800F5502A0AD8A4FA
:1042C00064EF21F066EF21F08FEF21F00350D96EFB
:1042D000DA6ADF2A0450D96EDA6A020EDF26DF5C62
:1042E000D96EDA6A6F0078FF08F06F0078FF09F086
:1042F000A5EF21F00A0E08026F00CCFF05F06F0059
:10430000D0FF06F00902F350062607500524086E78
:10431000000E0620096E0350D96EDA6ADF2A0350B8
:10432000D96EDA6A6F007FFFF6FF200EF76E000E7F
:10433000F86E0800F550D00F076E090E0764A3EF62
:1043400021F0A5EF21F07AEF21F008C003F009C0B9
:1043500004F01200086A04BEB2EF21F0B0EF21F0C1
:10436000B8EF21F0036C041ED8B0042A010E086EC9
:1043700006BEBFEF21F0BDEF21F0C3EF21F0056CC9
:10438000061ED8B0062A05500610D8B4CAEF21F090
:10439000CCEF21F0F0EF21F0010E076ED4EF21F009
:1043A000D89005360636072A06AED9EF21F0DBEFA6
:1043B00021F0D0EF21F00550035C06500458D8A03E
:1043C000E4EF21F0E6EF21F0EAEF21F00550035E83
:1043D0000650045AD89006320532072EDBEF21F042
:1043E0000850D8B4F6EF21F0F8EF21F0FCEF21F0FF
:1043F000036C041ED8B0042A03C003F004C004F008
:1044000012000550D8B407EF22F009EF22F011EFA7
:1044100022F00550D8A40FEF22F011EF22F016EF92
:1044200022F0035031EC26F056EF22F00550D96E01
:10443000DA6A090ED926DE50DE10D8B422EF22F057
:1044400024EF22F03DEF22F00550D96EDA6A090E12
:10445000D9260550E16EE26A020EE126DE50E65CE6
:10446000E650800A0A6EDE50800A0A58D8B03BEF48
:1044700022F03DEF22F056EF22F00550D96EDA6AB5
:10448000020ED926DF50066E0550D96EDA6ADF506B
:104490000624D96EDA6A60000FF0DFFF0550D96E8E
:1044A000DA6A020ED926DE2A000EDD221200000E84
:1044B00003140B6E000E04140C6E800E05140D6EAA
:1044C0007F0E06140E6E0B500C100D100E10D8A49B
:1044D0006CEF22F06EEF22F076EF22F0000E036E0A
:1044E000000E046E000E056E000E066E000E071420
:1044F0000B6E000E08140C6E800E09140D6E7F0EEC
:104500000A140E6E0B500C100D100E10D8A48BEF69
:1045100022F08DEF22F095EF22F0000E076E000ED4
:10452000086E000E096E000E0A6E075003180FE1A8
:10453000085004180CE10950051809E10A50061842
:10454000D8B4A5EF22F0A7EF22F0AAEF22F0D8907E
:10455000ABEF22F0D8801200000E176E000E186E1E
:10456000000E196E000E1A6E13501410151016104E
:10457000D8B4BDEF22F0BFEF22F0F5EF22F0010E2C
:104580001B6EC9EF22F0D890133614361536163646
:104590001B2A16AECEEF22F0D0EF22F0C3EF22F0AE
:1045A000D8901736183619361A3613500F5C145037
:1045B00010581550115816501258D8A0E2EF22F09A
:1045C000E4EF22F0EDEF22F013500F5E1450105A7A
:1045D0001550115A1650125A1780D89016321532AB
:1045E000143213321B2ED0EF22F017C00FF018C078
:1045F00010F019C011F01AC012F0120019EF23F0D8
:1046000060002BF0F6FF60002FF0F7FF000EF86E51
:104610001F0EF76403D00800F55007D06F00DBFFD2
:10462000E9FF6F00DFFFEAFFEF50E1EC25F00A4AF7
:104630000B2A60002BF0F6FF60002FF0F7FF000E52
:10464000F86E1F0EF76403D00800F55007D06F0016
:10465000DBFFE9FF6F00DFFFEAFFEF500009D8A49E
:1046600034EF23F036EF23F000EF23F01200000EBA
:104670000B6E000E0C6E000E0D6E000E0E6E03A083
:1046800044EF23F046EF23F04EEF23F007500B26C4
:1046900008500C2209500D220A500E22D8900736DD
:1046A000083609360A36D89006320532043203320B
:1046B0000350041005100610D8A461EF23F063EF37
:1046C00023F03FEF23F00BC003F00CC004F00DC04B
:1046D00005F00EC006F0120015BE73EF23F071EF67
:1046E00023F077EF23F0000E156E000E146E000E0F
:1046F000186E000E176E87EF23F0000E046E200E6A
:10470000036E11C005F001EC22F0174A182A14506C
:10471000175C1850800A166E1550800A1658D8A0DB
:1047200094EF23F096EF23F07DEF23F012C00BF00F
:1047300013C00CF011C00DF0FBEC24F0120005C00A
:104740000BF006C00CF003C009F004C00AF0BEEF85
:1047500023F060002FF0D9FF600033F0DAFFDF5064
:104760000D6E0B4A0C2A600027F0D9FF60002BF079
:10477000DAFF600037F0DFFF094A0A2A0706D8A0EF
:104780000806072806E10828D8A4C9EF23F0CBEFD4
:1047900023F0A9EF23F01200280EF66E4C0EF76EF0
:1047A000000EF86E00EEBBF010EE14F009006F0082
:1047B000D7FFEEFFE550E150F9E100EE00F1500EB9
:1047C000EE6AE806FDE10001D26BD16BD06BCF6BD6
:1047D00000EE54F0090EEE6AE806FDE1080ED56E13
:1047E000000ED66E000ED76E0001A4EF25F006BEB7
:1047F000FCEF23F0FEEF23F008EF24F003C003F0FA
:1048000004C004F005C005F006C006F021EF24F056
:1048100003C007F004C008F005C009F006C00AF0A4
:10482000071E081E091E0A1E072A000E082209225A
:104830000A2207C003F008C004F009C005F00AC04E
:1048400006F012003A0167A528EF24F02AEF24F0C1
:104850004AEF24F0000E026E000E016EBCAA33EF88
:1048600024F036EF24F0BC8A37EF24F0BC9A014ADA
:10487000022A02BE45EF24F0025009E11E0E015C3F
:10488000D8A045EF24F047EF24F02EEF24F0BC9A97
:104890003A0167951100000E066E000E056E64EF7A
:1048A00024F0000E086E000E076E074A082A085012
:1048B00009E1A50E075CD8A060EF24F062EF24F0B8
:1048C00055EF24F0054A062A0350055C04500658AB
:1048D000D8A06DEF24F06FEF24F051EF24F0120018
:1048E00003C007F004C008F0052A0504066E600046
:1048F0001BF0F6FF200EF76E000EF86E60001FF042
:10490000D9FF600023F0DAFF074A082A08006F0089
:10491000D7FFDFFFDF50D8A490EF24F092EF24F010
:1049200074EF24F01200000E201A000E211A000E5F
:10493000221A800E231A1CC003F01DC004F01EC0F2
:1049400005F01FC006F020C007F021C008F022C00B
:1049500009F023C00AF008EC15F003C01CF004C0F5
:104960001DF005C01EF006C01FF01200C56AC70E7C
:10497000C46EC6683A01806B706B606BC280408108
:104980003E01F851F30B0409F86FF889FF6BF16BE6
:10499000F56BFD6BF66BF76BF36BF46BF88F3A010D
:1049A00065853901908FD28AD28E3A0167956185EB
:1049B000120043C045F0E5EF24F042C038F0450E48
:1049C000396E44C03AF050EC1BF0600017F1F6FF6E
:1049D000200EF76E000EF86E0800F5500009D8A4FE
:1049E000F4EF24F0F6EF24F0DDEF24F0000E436E38
:1049F000000E426E1200000E106E000E0F6E0AEFD7
:104A000025F00EC003F0046A0DC005F001EC22F0A1
:104A10000F4A102A0F500B24D96E10500C20DA6E5A
:104A2000DF500E6E0E50D8A418EF25F01AEF25F0C7
:104A300001EF25F012000F6E020E0F6022EF25F03D
:104A400024EF25F02DEF25F00C500F0B8009106E90
:104A50001050CEEC25F034EF25F00C500F0BC009B0
:104A6000106E1050CEEC25F00DC00AF00EC00BF009
:104A7000FEEC22F012000350041005100610D8B40A
:104A800044EF25F046EF25F04EEF25F0000E031A17
:104A9000000E041A000E051A800E061A03C003F059
:104AA00004C004F005C005F006C006F012008E0E2A
:104AB000466E8CC047F0000E4A6E000E496E000E26
:104AC000516E000E506E470E426E8DC043F0460E82
:104AD000446ED9EC24F000018C514924D96EDA6A75
:104AE000DF6A12000ABE77EF25F079EF25F07FEF3D
:104AF00025F009C009F00AC00AF08BEF25F009C0C3
:104B00000BF00AC00CF00B1E0C1E0B4A0C2A0BC03B
:104B100009F00CC00AF01200FF0E0316030E041673
:104B20007AA895EF25F097EF25F09EEF25F0060E79
:104B3000D89003360436E82E98EF25F00450796EAD
:104B400060000FF078FF1200B6EC24F0B9EC25F00D
:104B5000000E0C6E100E0D6E0D50D8A4200E0E6EB1
:104B6000010E1BEC25F028EC26F0A5EC1DF057EF0C
:104B700000F0000E046E0F0E036E4BEC24F0C56ABD
:104B8000C46A010ECEEC25F0380ECEEC25F00C0EEA
:104B9000CEEC25F0060ECEEC25F01200096E60007A
:104BA00027F0BDFFC80E00D0E82EFDD7BC96BC880C
:104BB0000000BC98000E046E030E036E4BEC24F054
:104BC0001200096E600027F0BDFFBC86BC880000A3
:104BD000BC98000E046E010E036E4BEC24F0120024
:104BE000550E3A01BF6FAA0EBF6FBF910A0E0B6F31
:104BF000550EBF6FAA0EBF6FBF811200010EAE6EC1
:104C0000AD6AAF6AAB68AA6A3901A495B00EAC6E02
:104C100012008C0E7A6E796A0F0E786E3F015E512B
:104C2000F30B04095E6F120000006700CD00340131
:104C30009A0100026702CD0234039A037ABA23EF85
:104C400026F026EF26F0010E27EF26F0000E1200C8
:104C5000010ECEEC25F012002FEC26F01200AC8EE7
:044C6000120012002C
:020000040030CA
:0A000000F8FFFFFF9FFFFFFFFFFF67
:00000001FF
