:0400000057EF00F0C6
:100008002B002B002B002B002B002B002B00721237
:100018002B002B002B002B002B002B002B002B0080
:100028002B002B002B002B002B002B002B002B0070
:100038002B002B002B002B002B002B002B002B0060
:100048002B002B002B002B002B002B002B002B0050
:100058002B002B002B002B002B002B002B002B0040
:100068002B002B002B002B002B002B002B002B0030
:100078002B002B002B002B002B002B002B002B0020
:100088002B002B002B002B002B002B002B002B0010
:100098002B002B002B002B002B002B002B002B0000
:0A00A8002B002B00FF00D5EF25F020
:1020000000696E70757420766F6C746167653A0054
:102010004A61636F6200252E326600696E66006E4B
:10202000616E00205600256400000001836B52C0E1
:1020300084F053C085F054C086F055C087F087BF48
:1020400026EF10F024EF10F03AEF10F0010E836F3E
:1020500084C005F085C006F086C007F087C008F090
:1020600031EC27F005C084F006C085F007C086F08B
:1020700008C087F0000E0001896F000E886FF2C063
:1020800073F0F3C074F08351D8B449EF10F04BEF04
:1020900010F05FEF10F08351D8A451EF10F053EF20
:1020A00010F059EF10F0000E696F2B0E686F5DEFA6
:1020B00010F0000E696F2D0E686F68C083F084C049
:1020C00005F085C006F086C007F087C008F0E5EC93
:1020D00021F005040610D8A470EF10F072EF10F094
:1020E000A1EF10F000018351D8B479EF10F07BEF2D
:1020F00010F084EF10F083C000F17307D8A07407CC
:10210000000E896F010E886F000E8825056E010E86
:102110008921066E1B0E076E6CEC26F00001FD0E89
:102120007327FF0E742351C013F0000E146E010EBE
:10213000156E73C016F074C017F019EC25F007EF98
:1021400015F084C005F085C006F086C007F087C092
:1021500008F0E5EC21F005500610D8A4B2EF10F01D
:10216000B4EF10F0D2EF10F000018351D8B4BBEF00
:1021700010F0BDEF10F0C6EF10F083C000F1730750
:10218000D8A07407000E896F010E886F000E882595
:10219000056E010E8921066E1F0E076E6CEC26F08F
:1021A0008EEF10F0000E00018A6F000E8B6F800E14
:1021B0008C6F3F0E8D6F000E726F000E716F84C0BA
:1021C00005F085C006F086C007F087C008F0000E55
:1021D000096E000E0A6E000E0B6E000E0C6ECEEC39
:1021E00023F0D8B0F6EF10F0F8EF10F0D7EF11F0C1
:1021F00005EF11F075C08AF076C08BF077C08CF0D7
:1022000078C08DF00001714B722B8AC02CF08BC00E
:102210002DF08CC02EF08DC02FF0000E306E000E11
:10222000316E200E326E410E336E63EC17F02CC00F
:1022300075F02DC076F02EC077F02FC078F0000139
:102240007551845D056E76518559066E77518659B4
:10225000076E78518759086EAAEC25F008BE3CEF4E
:1022600011F008500710061009E1020E055CD8A015
:102270003CEF11F03EEF11F0FAEF10F075C045F0B1
:1022800076C046F077C047F078C048F084C049F087
:1022900085C04AF086C04BF087C04CF063EC21F05B
:1022A000D8A055EF11F057EF11F0FAEF10F0000140
:1022B0008A51845D056E8B518559066E8C51865905
:1022C000076E8D518759086EAAEC25F008BE76EF8F
:1022D00011F008500710061007E1020E055CD8B097
:1022E00074EF11F076EF11F0BEEF11F08AC084F0B8
:1022F0008BC085F08CC086F08DC087F0D7EF11F0D1
:102300008AC013F08BC014F08CC015F08DC016F08D
:10231000000E176E000E186E200E196E410E1A6E0A
:1023200088EC19F013C08AF014C08BF015C08CF043
:1023300016C08DF000017107D8A072078A51845D24
:10234000056E8B518559066E8C518659076E8D51DD
:102350008759086EAAEC25F008BEBCEF11F00850B2
:102360000710061007E1020E055CD8B0BAEF11F0B5
:10237000BCEF11F0BEEF11F076EF11F084C045F024
:1023800085C046F086C047F087C048F08AC049F053
:102390008BC04AF08CC04BF08DC04CF063EC21F048
:1023A000D8A0D5EF11F0D7EF11F080EF11F056C0A3
:1023B0006BF06BC06CF00001F5BFE1EF11F0E3EFE3
:1023C00011F0E9EF11F0F4C064F0F5C065F0EDEF45
:1023D00011F0000E656F060E646F64C06FF065C08B
:1023E00070F06F4B702B660E6C19D8A4FAEF11F0D9
:1023F000FCEF11F01CEF12F072BF03EF12F001EFCF
:1024000012F00FEF12F0000E8A6F000E8B6F800E2D
:102410008C6F3F0E8D6F000E726F000E716F670E26
:102420006B19D8B416EF12F018EF12F01CEF12F07F
:1024300071516F2772517023000E7A6F000E796F01
:1024400084C07BF085C07CF086C07DF087C07EF0C4
:102450008AC075F08BC076F08CC077F08DC078F0B4
:10246000ADEF12F07BC013F07CC014F07DC015F00E
:102470007EC016F08AC017F08BC018F08CC019F01F
:102480008DC01AF088EC19F013C02CF014C02DF098
:1024900015C02EF016C02FF0A9EC1DF02CC07FF057
:1024A0002DC080F02EC081F02FC082F07FC005F0DB
:1024B00080C006F081C007F082C008F0E0EC20F098
:1024C00005C06DF006C06EF07BC045F07CC046F0E4
:1024D0007DC047F07EC048F07FC030F080C031F052
:1024E00081C032F082C033F08AC02CF08BC02DF056
:1024F0008CC02EF08DC02FF063EC17F02CC049F08B
:102500002DC04AF02EC04BF02FC04CF08FEC26F0BF
:1025100045C07BF046C07CF047C07DF048C07EF0EF
:102520008AC013F08BC014F08CC015F08DC016F06B
:10253000000E176E000E186E200E196E410E1A6EE8
:1025400088EC19F013C08AF014C08BF015C08CF021
:1025500016C08DF00001794B7A2B6F51795D7A515D
:10256000800A606F7051800A6059D8A0BAEF12F0EB
:10257000BCEF12F032EF12F08AC02CF08BC02DF0BD
:102580008CC02EF08DC02FF0000E306E000E316E1C
:10259000A00E326E400E336E63EC17F02CC07FF04D
:1025A0002DC080F02EC081F02FC082F07BC045F09E
:1025B0007CC046F07DC047F07EC048F07FC049F047
:1025C00080C04AF081C04BF082C04CF063EC21F037
:1025D000D8B0EDEF12F0EFEF12F0FAEF12F0000EBC
:1025E00000017F6F000E806F000E816F000E826F02
:1025F00023EF13F07BC005F07CC006F07DC007F030
:102600007EC008F07FC009F080C00AF081C00BF0E6
:1026100082C00CF0CEEC23F0D8A011EF13F013EF32
:1026200013F023EF13F000016DB119EF13F01BEF5E
:1026300013F023EF13F0000E7F6F000E806F000E7B
:10264000816F000E826F84C005F085C006F086C0E1
:1026500007F087C008F07FC009F080C00AF081C091
:102660000BF082C00CF008EC15F005C07BF006C042
:102670007CF007C07DF008C07EF07BC045F07CC0D8
:1026800046F07DC047F07EC048F0000E306E000E70
:10269000316E200E326E410E336E75C02CF076C056
:1026A0002DF077C02EF078C02FF063EC17F02CC01F
:1026B00049F02DC04AF02EC04BF02FC04CF063EC17
:1026C00021F0D8A066EF13F068EF13F091EF13F04C
:1026D0000001714B722B75C02CF076C02DF077C0C5
:1026E0002EF078C02FF0000E306E000E316E200EEE
:1026F000326E410E336E63EC17F02CC075F02DC0B6
:1027000076F02EC077F02FC078F0660E00016C19BD
:10271000D8A48DEF13F08FEF13F091EF13F06F4B00
:10272000702B75C08AF076C08BF077C08CF078C0C3
:102730008DF071C062F072C063F000016A6B000E30
:10274000676F000E666F000E7A6F000E796F8EEF66
:1027500014F07BC013F07CC014F07DC015F07EC077
:1027600016F08AC017F08BC018F08CC019F08DC01D
:102770001AF088EC19F013C02CF014C02DF015C01D
:102780002EF016C02FF0A9EC1DF02CC07FF02DC04C
:1027900080F02EC081F02FC082F07FC005F080C095
:1027A00006F081C007F082C008F0E0EC20F006BE21
:1027B000E5EF13F0065007E10A0E055CD8B0E3EF31
:1027C00013F0E5EF13F0F5EF13F07FC005F080C0D4
:1027D00006F081C007F082C008F0E0EC20F005C0F0
:1027E0006DF006C06EF0FAEF13F0000E00016E6F90
:1027F000090E6D6F00016A51D8A401EF14F003EFC8
:1028000014F02BEF14F063BF0AEF14F008EF14F08C
:102810002BEF14F0000E8825D96E010E8921DA6E97
:102820002E0EDF6E884B892B7307D8A07407010E1C
:102830006A6F2BEF14F0000E8825D96E010E8921E6
:10284000DA6E300EDF6E884B892B7307D8A07407C1
:102850006607D8A0670766516711D8A432EF14F055
:1028600034EF14F01BEF14F0000E8825D96E010E22
:102870008921DA6E6D51300FDF6E884B892B73071B
:10288000D8A074077BC045F07CC046F07DC047F0FF
:102890007EC048F07FC030F080C031F081C032F09F
:1028A00082C033F08AC02CF08BC02DF08CC02EF08B
:1028B0008DC02FF063EC17F02CC049F02DC04AF00A
:1028C0002EC04BF02FC04CF08FEC26F045C07BF0B3
:1028D00046C07CF047C07DF048C07EF08AC013F04F
:1028E0008BC014F08CC015F08DC016F0000E176E62
:1028F000000E186E200E196E410E1A6E88EC19F03B
:1029000013C08AF014C08BF015C08CF016C08DF087
:1029100000016207D8A06307794B7A2B6F51795D6C
:102920007A51800A606F7051800A6059D8B09BEF6D
:1029300014F09DEF14F0ABEF14F089BFA9EF14F081
:10294000895109E14B0E885DD8A0A9EF14F0ABEFD7
:1029500014F0A9EF13F0000E7A6F4F0E796F000E8E
:102960007925D96E010E7A21DA6EDF6A000E606F6A
:10297000010E616F8851605F8951615B79516025FB
:10298000056E7A516121066E000E076E010E086E0B
:1029900088C009F089C00AF07DEC25F0000188515B
:1029A000795D886F89517A59896F8351D8A4DBEF9B
:1029B00014F0DEEF14F0010EDFEF14F0000E796F6B
:1029C0007A6B8351D8B4E7EF14F0E9EF14F0F5EF28
:1029D00014F08807D8A08907000E8825D96E010E4B
:1029E0008921DA6E60000FF2DFFF7951735F7A514F
:1029F000745B51C013F0000E8825146E010E8921FE
:102A0000156E73C016F074C017F019EC25F01200A3
:102A10000850800B116E08500824136E07AE13EF98
:102A200015F015EF15F016EF15F013801350D8B40C
:102A30001CEF15F01EEF15F032EF15F01328D8A497
:102A400024EF15F026EF15F02EEF15F0000E056EB1
:102A5000000E066E000E076E000E086E078E086AE6
:102A60003AEF15F0000E056E000E066E000E076EB2
:102A7000000E086E0C50800B126E11501218D8B454
:102A800044EF15F046EF15F047EF15F0118C0C50A0
:102A90000C24126E0BAE4FEF15F051EF15F052EF04
:102AA00015F012801250D8B458EF15F05AEF15F007
:102AB0006EEF15F01228D8A460EF15F062EF15F054
:102AC0006AEF15F0000E096E000E0A6E000E0B6E16
:102AD000000E0C6E0B8E0C6A76EF15F0000E096E70
:102AE000000E0A6E000E0B6E000E0C6E1350125C80
:102AF000D8B07DEF15F07FEF15F0A6EF15F011AC13
:102B000084EF15F086EF15F088EF15F0800E111A9E
:102B100013C014F012C013F014C012F005C014F06A
:102B200009C005F014C009F006C014F00AC006F090
:102B300014C00AF007C014F00BC007F014C00BF06B
:102B400008C014F00CC008F014C00CF0146A135044
:102B500012C00DF00E6A0D5E000E0E5A0EBEBAEFD8
:102B600015F00E5009E11A0E0D5CD8A0BAEF15F061
:102B7000BCEF15F0F3EF15F0055006100710081024
:102B8000D8A4C5EF15F0C8EF15F0010EC9EF15F088
:102B9000000E146E000E056E000E066E000E076E1F
:102BA000000E086E12C013F0FCEF15F014A0DBEF5E
:102BB00015F0DDEF15F0E3EF15F0D89014300109B2
:102BC000146EE5EF15F0D890143205A0EAEF15F079
:102BD000ECEF15F0EDEF15F0148E083408320732E3
:102BE00006320532132A1250135CD8A0FAEF15F002
:102BF000FCEF15F0D6EF15F011BC01EF16F003EF66
:102C000016F043EF16F01350D8A409EF16F00BEFAF
:102C100016F015EF16F0000E056E000E066E000E93
:102C2000076E000E086E62EF17F0095005260A5075
:102C300006220B5007220C50082208A022EF16F0A3
:102C400024EF16F0D0EF16F014A029EF16F02BEFBA
:102C500016F031EF16F0D89014300109146E33EFEE
:102C600016F0D890143205A038EF16F03AEF16F0AF
:102C70003BEF16F0148E0834083207320632053264
:102C8000132AD0EF16F00950055C0A5006580B5075
:102C900007580850800A0D6E0C50800A0D58D8B0A5
:102CA00054EF16F056EF16F081EF16F00550095C60
:102CB0000D6E06500A580E6E07500B580F6E0850D6
:102CC0000C58106EFF0E0D24056EFF0E0E20066EC2
:102CD000FF0E0F20076EFF0E1020086E800E111AD7
:102CE000146C1450D8A477EF16F079EF16F089EF32
:102CF00016F0010E0526000E06220722082289EF93
:102D000016F00950055E0A50065A0B50075A0C502F
:102D1000085A0550061007100810D8A492EF16F0B4
:102D200094EF16F0C9EF16F01450D8A49AEF16F0ED
:102D30009CEF16F0C9EF16F0000E056E000E066E41
:102D4000000E076E000E086E62EF17F0D890053681
:102D500006360736083614AEB0EF16F0B2EF16F0AE
:102D6000B3EF16F0058014A0B8EF16F0BAEF16F026
:102D7000BEEF16F0D8801436C0EF16F0D890143697
:102D80001350D8B4C6EF16F0C8EF16F0C9EF16F01E
:102D9000130607AECEEF16F0D0EF16F0A6EF16F042
:102DA000126A14AED6EF16F0D8EF16F0F0EF16F068
:102DB00014C00DF07F0E0D16D8B4E1EF16F0E3EF5E
:102DC00016F0E7EF16F0010E126EF0EF16F005A008
:102DD000ECEF16F0EEEF16F0F0EF16F0E3EF16F072
:102DE0001250D8B4F6EF16F0F8EF16F023EF17F004
:102DF000010E0526000E06220722082208A003EF76
:102E000017F005EF17F023EF17F005C00DF006C01F
:102E10000EF007C00FF008C010F0103410320F325F
:102E20000E320D320DC005F00EC006F00FC007F0D7
:102E300010C008F01328D8B420EF17F022EF17F0D5
:102E400023EF17F0132A1328D8B429EF17F02BEF2C
:102E500017F033EF17F01350D8A431EF17F033EF1A
:102E600017F044EF17F0000E056E000E066E000E10
:102E7000076E000E086E1350D8A441EF17F043EF11
:102E800017F044EF17F0116A13A049EF17F04BEF5A
:102E900017F04EEF17F0078E4FEF17F0079ED89000
:102EA0001330086E11AE57EF17F059EF17F05AEFC5
:102EB00017F0088E05C005F006C006F007C007F041
:102EC00008C008F012002F50800B386E2F502F24AE
:102ED0003E6E2EAE6EEF17F070EF17F071EF17F039
:102EE0003E803E50D8B477EF17F079EF17F08CEFB3
:102EF00017F03E28D8A47FEF17F081EF17F089EF85
:102F000017F0000E2C6E000E2D6E000E2E6E000EB1
:102F10002F6E2E8E94EF17F0000E2C6E000E2D6E7D
:102F2000000E2E6E000E2F6E3350800B381A335069
:102F300033243D6E32AE9FEF17F0A1EF17F0A2EFF2
:102F400017F03D803D50D8B4A8EF17F0AAEF17F066
:102F5000BDEF17F03D28D8A4B0EF17F0B2EF17F08F
:102F6000BAEF17F0000E306E000E316E000E326EAA
:102F7000000E336E328EC5EF17F0000E306E000E6D
:102F8000316E000E326E000E336E3D50D8B4CBEF72
:102F900017F0CDEF17F0D5EF17F03E50D8A4D3EFD0
:102FA00017F0D5EF17F0DFEF17F0000E2C6E000EC4
:102FB0002D6E000E2E6E000E2F6E87EF19F0325020
:102FC0002C026F00CCFF43F06F00D0FF44F0435061
:102FD000396E3A6A3B6A3C6A44503F6E406A416AC5
:102FE000426A31502D026F00CCFF43F06F00D0FFDA
:102FF00044F043503926000E3A223B223C224450F2
:103000003F26000E40224122422230502E026F0005
:10301000CCFF43F06F00D0FF44F043503926000E40
:103020003A223B223C2244503F26000E40224122BD
:1030300042223BC03CF03AC03BF039C03AF0396A1A
:1030400030502D026F00CCFF43F06F00D0FF44F0F2
:103050004350392644503A22000E3B22000E3C22B7
:1030600031502C026F00CCFF43F06F00D0FF44F0D2
:103070004350392644503A22000E3B22000E3C2297
:103080003BC03CF03AC03BF039C03AF0396A3050AE
:103090002C026F00CCFF43F06F00D0FF44F0435090
:1030A000392644503A22000E3B22000E3C22325078
:1030B0002D026F00CCFF43F06F00D0FF44F043506F
:1030C0003F2644504022000E4122000E4222315041
:1030D0002E026F00CCFF43F06F00D0FF44F043504E
:1030E0003F2644504022000E4122000E4222325020
:1030F0002E026F00CCFF43F06F00D0FF44F043502E
:10310000346E4450356E366A376A36C037F035C093
:1031100036F034C035F0346A34503F263550402202
:10312000365041223750422239C034F03AC035F08F
:103130003BC036F03CC037F0190EA4EF18F0D89021
:103140003732363235323432E82E9FEF18F03450B1
:103150003F263550402236504122375042223BC054
:103160003CF03AC03BF039C03AF0396A3D503EC0BD
:1031700034F0356A3426000E3522820E3424436E34
:10318000FF0E3520446EDAEF18F0D8903F36403607
:10319000413642363CAECFEF18F0D1EF18F0D2EF07
:1031A00018F03F80D89039363A363B363C364306E5
:1031B000D8A0440641AEDFEF18F0E1EF18F0C5EFFC
:1031C00018F03D6A3CAEE7EF18F0E9EF18F00DEFAC
:1031D00019F0FF0E3914346EFF0E3A14356EFF0EDF
:1031E0003B14366E7F0E3C14376E3450351036105B
:1031F0003710D8B4FEEF18F000EF19F004EF19F013
:10320000010E3D6E0DEF19F03FA009EF19F00BEF25
:1032100019F00DEF19F000EF19F03D50D8B413EF8D
:1032200019F015EF19F039EF19F0010E3F26000ED5
:1032300040224122422242A020EF19F022EF19F051
:1032400039EF19F03FC034F040C035F041C036F0DE
:1032500042C037F03734373236323532343234C048
:103260003FF035C040F036C041F037C042F0434A2D
:10327000442A44BE44EF19F0445008E14328D8A042
:1032800044EF19F046EF19F050EF19F0000E3F6EC1
:10329000000E406E800E416E7F0E426E7DEF19F083
:1032A00044BE5DEF19F0445006E14304D8B05BEF33
:1032B00019F05DEF19F068EF19F0000E3F6E000E87
:1032C000406E000E416E000E426E386A7DEF19F0BE
:1032D00043C03EF0FF0E3F16FF0E40167F0E411614
:1032E000000E42163EA077EF19F079EF19F07AEF51
:1032F00019F0418ED8903E30426E385042123FC095
:103300002CF040C02DF041C02EF042C02FF0120032
:103310001650800B236E165016242A6E15AE93EFAE
:1033200019F095EF19F096EF19F02A802A50D8B4C9
:103330009CEF19F09EEF19F0B2EF19F02A28D8A4EB
:10334000A4EF19F0A6EF19F0AEEF19F0000E136E0E
:10335000000E146E000E156E000E166E158E166A97
:10336000BAEF19F0000E136E000E146E000E156EFB
:10337000000E166E1A50800B231A1A501A242B6E48
:1033800019AEC5EF19F0C7EF19F0C8EF19F02B808F
:103390002B50D8B4CEEF19F0D0EF19F0E4EF19F0BC
:1033A0002B28D8A4D6EF19F0D8EF19F0E0EF19F0D8
:1033B000000E176E000E186E000E196E000E1A6EBB
:1033C000198E1A6AECEF19F0000E176E000E186EC7
:1033D000000E196E000E1A6E1750181019101A10E0
:1033E000D8A4F5EF19F0F7EF19F00FEF1AF0000E6F
:1033F000136E000E146E000E156E000E166E800E0B
:1034000015127F0E16122350161213C013F014C09B
:1034100014F015C015F016C016F04FEF1BF02A502F
:10342000D8A415EF1AF017EF1AF021EF1AF0000EDA
:10343000136E000E146E000E156E000E166E4FEF1A
:103440001BF02B502AC01BF01C6A1B5E000E1C5A7E
:103450007F0E1B24246E000E1C20256E13C01FF04F
:1034600014C020F015C021F016C022F0000E136E1B
:10347000000E146E000E156E000E166E000E266EF7
:10348000000E276E000E286E000E296E2B6A81EF4B
:103490001AF02B50D8B44FEF1AF051EF1AF068EF32
:1034A0001AF0D8901F36203621362236D89013369F
:1034B00014361536163629AE60EF1AF062EF1AF0A0
:1034C00063EF1AF01380D89026362736283629362F
:1034D00017501F5C18502058195021581A50225864
:1034E000D8A075EF1AF077EF1AF080EF1AF0298C58
:1034F00017501F5E1850205A1950215A1A50225A3C
:103500002B2A190E2B6487EF1AF089EF1AF049EF76
:103510001AF01F50201021102210D8B492EF1AF088
:1035200094EF1AF0ACEF1AF02680ACEF1AF0D890B6
:10353000133614361536163629AEA1EF1AF0A3EF5E
:103540001AF0A4EF1AF01380D890263627362836C2
:1035500029362406D8A0250615AEB1EF1AF0B3EF30
:103560001AF097EF1AF02B6A29AEB9EF1AF0BBEFF9
:103570001AF0DFEF1AF0FF0E26141B6EFF0E271451
:103580001C6EFF0E28141D6E7F0E29141E6E1B501C
:103590001C101D101E10D8B4D0EF1AF0D2EF1AF084
:1035A000D6EF1AF0010E2B6EDFEF1AF013A0DBEF4F
:1035B0001AF0DDEF1AF0DFEF1AF0D2EF1AF02B500D
:1035C000D8B4E5EF1AF0E7EF1AF00BEF1BF0010E9D
:1035D0001326000E14221522162216A0F2EF1AF05E
:1035E000F4EF1AF00BEF1BF013C01BF014C01CF02B
:1035F00015C01DF016C01EF01E341E321D321C32C6
:103600001B321BC013F01CC014F01DC015F01EC0EF
:1036100016F0244A252A25BE16EF1BF0255008E196
:103620002428D8A016EF1BF018EF1BF023EF1BF097
:10363000000E256E2468000E136E000E146E000E30
:10364000156E000E166E25BE30EF1BF0255006E1FC
:103650002404D8B02EEF1BF030EF1BF03DEF1BF031
:10366000000E256E000E246E000E136E000E146EFA
:10367000000E156E000E166E236A24C02AF02AA0D2
:1036800044EF1BF046EF1BF049EF1BF0158E4AEF9D
:103690001BF0159ED8902A30166E03EF1AF0120018
:1036A00000018F51D96EDA6A6F007FFFF6FF200E9E
:1036B000F76E000EF86E0800F550250AD8A463EFE7
:1036C0001BF065EF1BF089EF1CF08F51D96EDA6AA1
:1036D000DF2A000EF36F000EF26FF2C0F6F0F4690D
:1036E000F5698F51D96EDA6A6F007FFFF6FF200E01
:1036F000F76E000EF86E0800F5502E0AD8A483EF7E
:103700001BF085EF1BF093EF1BF08F51D96EDA6A37
:10371000DF2A8FC005F090C006F0C5EC22F005C08E
:10372000F4F006C0F5F000018F51D96EDA6ADF506F
:10373000966F60005BF2F6FF200EF76E000EF86EDB
:103740000800F550640AD8B4A8EF1BF0AAEF1BF0EC
:10375000BBEF1BF060005BF2F6FF200EF76E000E71
:10376000F86E0800F550690AD8A4B9EF1BF0BBEF5A
:103770001BF0D8EF1BF09051D96EDA6A020EDF26EB
:10378000DF5CD96EDA6A6F0078FF91F06F0078FF26
:1037900092F08F51D96EDA6A9629DF6E8EC01BF0D7
:1037A00091C01CF092C01DF08CEC1FF09DEF1CF03E
:1037B0008F51D96EDA6ADF50966F60005BF2F6FFC8
:1037C000200EF76E000EF86E08006F00D4FF95F023
:1037D000F4EF1BF0962B03EF1CF06C0E956F03EFCC
:1037E0001CF0956B03EF1CF095514C0AD8B4EAEF2E
:1037F0001BF02A0AD8B4EDEF1BF00A0AD8B4EAEF9E
:103800001BF0F1EF1BF060005BF2F6FF200EF76E8D
:10381000000EF86E0800F550660AD8A412EF1CF0EE
:1038200014EF1CF082EF1CF048EF1CF09051D96EA1
:10383000DA6A6F007CFF57F0040EDF265750D96E0E
:10384000DA6A6F0078FF91F06F0078FF92F06F00F6
:1038500078FF93F06F0078FF94F053EF1CF09051D5
:10386000D96EDA6A6F007CFF57F0040EDF265750DE
:10387000D96EDA6A6F0078FF91F06F0078FF92F0EE
:103880006F0078FF93F06F0078FF94F053EF1CF017
:1038900095514C0AD8B42FEF1CF0200AD8B416EF7B
:1038A0001CF053EF1CF08F51D96EDA6A9629DF6E47
:1038B00073EF1CF08EC051F091C052F092C053F0E3
:1038C00093C054F094C055F060005BF2F6FF200EF8
:1038D000F76E000EF86E08006F00D4FF56F015EC7E
:1038E00010F09DEF1CF060005BF2F6FF200EF76E0B
:1038F000000EF86E0800F550660AD8B45AEF1CF0B6
:1039000082EF1CF000018F51D96EDA6ADF2A9DEF39
:103910001CF08F51D96EDA6A6F007FFFF6FF200E20
:10392000F76E000EF86E0800F550056E066A8EC040
:1039300007F078EC23F082EF1CF0120020EEDAF0B2
:1039400010EEBEF0130E6F006FFFE3FFE806FBE220
:10395000000E0001D76F000ED66F3901DC8D020E0C
:10396000DF6F3A01506BC36ACB6AC4EC27F0F2EC0C
:1039700027F0B6EC27F0CFEC27F0BEC005F0BFC0B3
:1039800006F067EC27F0BEC005F0BFC006F0000EE1
:1039900006BEFF0E076E086E640E096E000E0A6EFC
:1039A000000E0B6E000E0C6EAEEC24F005C011F094
:1039B00006C012F007C013F008C014F0AB500001AD
:1039C000AD6FAE6BD890AD37AE37D890AD37AE3760
:1039D000040EAD27000EAE23ADC015F0AEC016F03C
:1039E000000E16BEFF0E176E186E23EC24F011C0E9
:1039F000D4F012C0D5F0AC50EEEC27F0AF0E0001C1
:103A00009B6F260E9C6FD4C09DF0D5C09EF015EC28
:103A100027F0000E0E6EAF0E0F6E106A020EF5EC60
:103A200026F0E4EC27F00001AD6FAD51D26FD36BFF
:103A3000D2B102D0CB9401D0CB84CEA222EF1DF024
:103A400024EF1DF011EF1DF00001D64BD72B0A0E0D
:103A5000D619D711D8A42FEF1DF031EF1DF035EF97
:103A60001DF0000ED76F000ED66FD651020DF35029
:103A7000BE0FD96EDA6A6F0078FF05F06F0074FF31
:103A800006F0000E06BEFF0E076E086E640E096E8D
:103A9000000E0A6E000E0B6E000E0C6EAEEC24F0E3
:103AA00005C011F006C012F007C013F008C014F0F2
:103AB000AB500001AD6FAE6BD890AD37AE37D8903C
:103AC000AD37AE37040EAD27000EAE23ADC015F0F6
:103AD000AEC016F0000E16BEFF0E176E186E23EC69
:103AE00024F011C0D4F012C0D5F00001D651020D5F
:103AF000F350BE0FD96EDA6A6F0078FF05F06F00E1
:103B000074FF06F067EC27F0EEEC27F0AF0E000133
:103B10009B6F260E9C6FD4C09DF0D5C09EF015EC17
:103B200027F0000E0E6EAF0E0F6E106A020EF5EC4F
:103B300026F0060E0001AE6F130EAD6FAD0EE82E2F
:103B4000FED7AD2FFCD7AE2FFAD700D011EF1DF066
:103B50001200EEC03CF0EFC03DF0F0C03EF0F1C00E
:103B60003FF02CC03CF02DC03DF02EC03EF02FC0E9
:103B70003FF0810E306EFF0E316E3CC032F03DC022
:103B800033F03EC034F03FC035F0180ECDEF1DF0DD
:103B9000D8903532343233323232E82EC8EF1DF04D
:103BA000325030243A6E000E31203B6E3BBEE2EFC5
:103BB0001DF03B5009E1170E3A5CD8A0E2EF1DF072
:103BC000E4EF1DF0EEEF1DF02CC02CF02DC02DF019
:103BD0002EC02EF02FC02FF0B1EF1EF03BBEF3EF42
:103BE0001DF0F5EF1DF065EF1EF03AC030F0FF0E4E
:103BF000316EFF0E326E7F0E336E000E346E306605
:103C000004EF1EF00CEF1EF0343434323332323213
:103C10003132302EFFEF1DF031C036F032C037F0B8
:103C200033C038F034C039F036503C14306E375061
:103C30003D14316E38503E14326E39503F14336E9D
:103C40003050311032103310D8A429EF1EF02BEF72
:103C50001EF02DEF1EF0E4EF1DF03CC030F03DC033
:103C600031F03EC032F03FC033F0200E3DEF1EF089
:103C7000D8903332323231323032E82E38EF1EF003
:103C80003050311032103310D8B449EF1EF04BEFE2
:103C90001EF053EF1EF036503C2637503D22385070
:103CA0003E2239503F22361C306E371C316E381C94
:103CB000326E391C336E30503C1631503D16325046
:103CC0003E1633503F16A9EF1EF03CC030F03DC009
:103CD00031F03EC032F03FC033F0200E75EF1EF0E1
:103CE000D8903332323231323032E82E70EF1EF05B
:103CF0003050311032103310D8A481EF1EF083EF12
:103D00001EF08DEF1EF0000E3C6E000E3D6E000E9C
:103D10003E6E000E3F6EA9EF1EF0D8903C34306E20
:103D20003D34316E3E34326E3F34336E305031109C
:103D300032103310D8B49FEF1EF0A1EF1EF0A9EFA0
:103D40001EF0000E3C6E000E3D6E800E3E6EBF0EED
:103D50003F6E3CC02CF03DC02DF03EC02EF03FC069
:103D60002FF012000D6E0D50D8B4B9EF1EF0BBEF5E
:103D70001EF0DDEF1EF008BEC2EF1EF0C0EF1EF019
:103D8000DDEF1EF005C009F006C00AF007C00BF019
:103D900008C00CF0091E0A1E0B1E0C1E092A000E7C
:103DA0000A220B220C2209C00FF00AC010F00BC02F
:103DB00011F00CC012F0E5EF1EF005C00FF006C0C8
:103DC00010F007C011F008C012F0055006100710DF
:103DD0000810D8A4EEEF1EF0F0EF1EF0FAEF1EF080
:103DE000000E056E000E066E000E076E000E086EC9
:103DF0008BEF1FF0960E0E6E04EF1FF00E2AD89078
:103E00001232113210320F32000E0F14096E000EF2
:103E100010140A6E000E11140B6EFE0E12140C6EAE
:103E200009500A100B100C10D8A419EF1FF01BEF4B
:103E30001FF0FEEF1EF029EF1FF00E2A010E0F26D5
:103E4000000E102211221222D8901232113210329A
:103E50000F32000E0F14096E000E10140A6E000EC1
:103E600011140B6EFF0E12140C6E09500A100B1079
:103E70000C10D8A43EEF1FF040EF1FF01DEF1FF015
:103E800048EF1FF00E06D8900F3610361136123656
:103E900011BE4DEF1FF04FEF1FF057EF1FF0020E56
:103EA0000E6055EF1FF057EF1FF042EF1FF00EB0FE
:103EB0005CEF1FF05EEF1FF05FEF1FF0119ED890D8
:103EC0000E320EC009F00A6A0B6A0C6A09C00CF0C7
:103ED0000B6A0A6A096A09500F120A5010120B5035
:103EE00011120C5012120D50D8B479EF1FF07BEF65
:103EF0001FF083EF1FF008BE82EF1FF080EF1FF06E
:103F000083EF1FF0128E0FC005F010C006F011C035
:103F100007F012C008F012001DBE91EF1FF094EFE1
:103F20001FF0010E95EF1FF0000E246E0001F5BF8B
:103F30009EEF1FF09CEF1FF0A4EF1FF0000E236E0A
:103F4000010E226EA8EF1FF0F4C022F0F5C023F09E
:103F5000F2C020F0F3C021F02450D8B4B2EF1FF02B
:103F6000B4EF1FF0CBEF1FF02006D8A0210624509D
:103F7000D8A4BDEF1FF0BFEF1FF0C5EF1FF0000E7C
:103F80001F6E2B0E1E6EC9EF1FF0000E1F6E2D0E42
:103F90001E6E1EC024F0000E266E4F0E256E01010F
:103FA0004F6B03EF20F02506D8A02606000E25242F
:103FB000D96E010E2620DA6E1CC005F01DC006F079
:103FC000000E086E0A0E076E21EC23F005C00BF000
:103FD00006C00CF04DEC27F00B50300FDF6E2206C0
:103FE000D8A023062006D8A021061CC005F01DC0BD
:103FF00006F0000E086E0A0E076E64EC22F005C093
:104000001CF006C01DF026BE0EEF20F0265008E181
:104010002504D8A00EEF20F010EF20F026EF20F0BE
:104020001C501D10D8A417EF20F019EF20F0D3EF8B
:104030001FF023BE26EF20F0235006E12204D8B063
:1040400024EF20F026EF20F0D3EF1FF02450D8B457
:104050002CEF20F02EEF20F03AEF20F02506D8A02C
:104060002606000E2524D96E010E2620DA6E600089
:1040700093F0DFFF1BC013F0000E2524146E010E19
:104080002620156E20C016F021C017F019EC25F07F
:104090001200000E0001C06F050EBF6F000E0E6E05
:1040A000010E0F6E0F50D8A4200E106E010EF5EC0D
:1040B00026F03E01F881F8B160EF20F062EF20F0C9
:1040C0005BEF20F0EF516F00C0FBADF00001AE6B75
:1040D000ADC0AEF0AD6BAD11C16FAE51C26FC1C01E
:1040E00005F0C2C006F0000E06BEFF0E076E086E99
:1040F000010EB2EC1EF005C02CF006C02DF007C07A
:104100002EF008C02FF0000E176E000E186E800EF5
:10411000196E450E1A6EBFC005F0C0C006F0000E45
:1041200006BEFF0E076E086E010EB2EC1EF005C053
:1041300013F006C014F007C015F008C016F088ECA4
:1041400019F013C030F014C031F015C032F016C0B1
:1041500033F063EC17F02CC0BBF02DC0BCF02EC0C8
:10416000BDF02FC0BEF0AF0E00019B6F160E9C6F0E
:10417000BBC09DF0BCC09EF0BDC09FF0BEC0A0F013
:1041800015EC27F0AF0E056E230E066E4CEC25F0F5
:10419000000E0E6EAF0E0F6E106A020EF5EC26F0DA
:1041A0000B0E0001AE6F260EAD6F5D0EE82EFED732
:1041B000AD2FFCD7AE2FFAD700D059EF20F0120068
:1041C000073408340E6E0E50D8A4E9EF20F0EBEF60
:1041D00020F0F5EF20F0000E056E000E066E000ECA
:1041E000076E000E086E62EF21F005C009F006C0F0
:1041F0000AF007C00BF008C00CF0200E05EF21F00C
:10420000D8900C320B320A320932E82E00EF21F03E
:1042100009500D6E078EFF0E0516FF0E0616FF0ED7
:104220000716000E0816960E0E5E0EBE1CEF21F04D
:104230001AEF21F032EF21F00E50800A970FD8B01C
:1042400024EF21F026EF21F028EF21F0EBEF20F012
:10425000D89008320732063205320E3E28EF21F0A0
:104260004AEF21F01F0E0E6438EF21F03AEF21F0F3
:1042700042EF21F0EBEF20F0D890053606360736F6
:1042800008360E060E50D8A448EF21F04AEF21F070
:104290003CEF21F00D50D8B450EF21F052EF21F057
:1042A0005AEF21F0081E071E061E056C000E06229E
:1042B0000722082205C005F006C006F007C007F077
:1042C00008C008F01200000E45144D6E000E461492
:1042D0004E6E800E47144F6E7F0E4814506E4D5038
:1042E0004E104F105010D8A478EF21F07AEF21F043
:1042F00082EF21F0000E456E000E466E000E476EF6
:10430000000E486E000E49144D6E000E4A144E6E9B
:10431000800E4B144F6E7F0E4C14506E4D504E104D
:104320004F105010D8A497EF21F099EF21F0A1EF92
:1043300021F0000E496E000E4A6E000E4B6E000E0C
:104340004C6E48AEA6EF21F0A8EF21F0B1EF21F0BE
:10435000456C461ED8B0462A471ED8B0472A800E64
:1043600048564CAEB6EF21F0B8EF21F0C1EF21F086
:10437000496C4A1ED8B04A2A4B1ED8B04B2A800E30
:104380004C56000E451A000E461A000E471A800EB3
:10439000481A000E491A000E4A1A000E4B1A800ED7
:1043A0004C1A4950455C4A5046584B5047584C505F
:1043B0004858D8B0DEEF21F0E0EF21F0E3EF21F034
:1043C000D890E4EF21F0D880120058C00FF059C007
:1043D00010F05AC011F05BC012F005C00FF006C01B
:1043E00010F007C011F008C012F00FC009F010C0A3
:1043F0000AF011C00BF012C00CF0180E05EF22F0FD
:10440000D8900C320B320A320932E82E00EF22F03B
:1044100009500D6E0E6A0D500E10D8A412EF22F046
:1044200014EF22F034EF22F0D8900F34096E1034DC
:104430000A6E11340B6E12340C6E09500A100B10F8
:104440000C10D8A426EF22F028EF22F02EEF22F055
:10445000000E066E020E056E63EF22F0000E066E71
:10446000030E056E63EF22F00D280E10D8A43BEF6B
:1044700022F03DEF22F05FEF22F00FC009F010C0F4
:104480000AF011C00BF012C00CF0090ED8900936DA
:104490000A360B360C36E82E46EF22F009500A1089
:1044A0000B100C10D8B457EF22F05AEF22F0010E87
:1044B0005BEF22F0000E056E066A63EF22F0000E3D
:1044C000066E040E056E12000A6A08BE6CEF22F03A
:1044D0006AEF22F072EF22F0076C081ED8B0082AAB
:1044E000010E0A6E06BE79EF22F077EF22F07FEF21
:1044F00022F0056C061ED8B0062A010E0A1A000E1C
:104500000C6E000E0B6E07500810D8B48AEF22F024
:104510008CEF22F0B4EF22F0010E096E94EF22F03E
:10452000D89007360836092A08AE99EF22F09BEF9B
:1045300022F090EF22F0D8900B360C360750055C35
:1045400008500658D8A0A7EF22F0A9EF22F0AEEF4E
:1045500022F00750055E0850065A0B80D8900832AA
:104560000732092E9BEF22F00A50D8B4BAEF22F09E
:10457000BCEF22F0C0EF22F00B6C0C1ED8B00C2A5E
:104580000BC005F00CC006F01200000E0B6E000E02
:104590000A6E0550D96EDA6A6F007FFFF6FF200EB3
:1045A000F76E000EF86E0800F5502A0AD8A4DBEF6B
:1045B00022F0DDEF22F006EF23F00550D96EDA6A23
:1045C000DF2A0650D96EDA6A020EDF26DF5CD96E6A
:1045D000DA6A6F0078FF0AF06F0078FF0BF01CEFCB
:1045E00023F00A0E0A026F00CCFF07F06F00D0FF25
:1045F00008F00B02F3500826095007240A6E000E3B
:1046000008200B6E0550D96EDA6ADF2A0550D96E84
:10461000DA6A6F007FFFF6FF200EF76E000EF86E6D
:104620000800F550D00F096E090E09641AEF23F047
:104630001CEF23F0F1EF22F00AC005F00BC006F0EA
:1046400012000A6A06BE29EF23F027EF23F02FEFAE
:1046500023F0056C061ED8B0062A010E0A6E08BEAD
:1046600036EF23F034EF23F03AEF23F0076C081E07
:10467000D8B0082A07500810D8B441EF23F043EF10
:1046800023F067EF23F0010E096E4BEF23F0D89073
:1046900007360836092A08AE50EF23F052EF23F010
:1046A00047EF23F00750055C08500658D8A05BEF91
:1046B00023F05DEF23F061EF23F00750055E085013
:1046C000065AD89008320732092E52EF23F00A50CA
:1046D000D8B46DEF23F06FEF23F073EF23F0056C88
:1046E000061ED8B0062A05C005F006C006F0120066
:1046F0000750D8B47EEF23F080EF23F088EF23F04B
:104700000750D8A486EF23F088EF23F08DEF23F035
:104710000550F7EC27F0CDEF23F00750D96EDA6A99
:10472000090ED926DE50DE10D8B499EF23F09BEFA6
:1047300023F0B4EF23F00750D96EDA6A090ED926B8
:104740000750E16EE26A020EE126DE50E65CE650BA
:10475000800A0C6EDE50800A0C58D8B0B2EF23F0FD
:10476000B4EF23F0CDEF23F00750D96EDA6A020ED2
:10477000D926DF50086E0750D96EDA6ADF50082458
:10478000D96EDA6A600017F0DFFF0750D96EDA6A77
:10479000020ED926DE2A000EDD221200000E0514BC
:1047A0000D6E000E06140E6E800E07140F6E7F0E37
:1047B0000814106E0D500E100F101010D8A4E3EF57
:1047C00023F0E5EF23F0EDEF23F0000E056E000E71
:1047D000066E000E076E000E086E000E09140D6EB8
:1047E000000E0A140E6E800E0B140F6E7F0E0C144A
:1047F000106E0D500E100F101010D8A402EF24F000
:1048000004EF24F00CEF24F0000E096E000E0A6E87
:10481000000E0B6E000E0C6E095005180FE10A50C9
:1048200006180CE10B50071809E10C500818D8B411
:104830001CEF24F01EEF24F021EF24F0D89022EF9B
:1048400024F0D8801200000E196E000E1A6E000EB1
:104850001B6E000E1C6E1550161017101810D8B4D1
:1048600034EF24F036EF24F06CEF24F0010E1D6ECF
:1048700040EF24F0D89015361636173618361D2A14
:1048800018AE45EF24F047EF24F03AEF24F0D8902B
:1048900019361A361B361C361550115C1650125834
:1048A0001750135818501458D8A059EF24F05BEF44
:1048B00024F064EF24F01550115E1650125A175070
:1048C000135A1850145A1980D890183217321632C9
:1048D00015321D2E47EF24F019C011F01AC012F046
:1048E0001BC013F01CC014F0120090EF24F0600005
:1048F00033F0F6FF600037F0F7FF000EF86E1F0E82
:10490000F76403D00800F55007D06F00DBFFE1FF2C
:104910006F00DFFFE2FFE750A7EC27F00C4A0D2AFB
:10492000600033F0F6FF600037F0F7FF000EF86E1E
:104930001F0EF76403D00800F55007D06F00DBFFAF
:10494000E1FF6F00DFFFE2FFE7500009D8A4ABEF03
:1049500024F0ADEF24F077EF24F01200000E0D6E7E
:10496000000E0E6E000E0F6E000E106E05A0BBEF57
:1049700024F0BDEF24F0C5EF24F009500D260A50B5
:104980000E220B500F220C501022D89009360A36F6
:104990000B360C36D89008320732063205320550F5
:1049A000061007100810D8A4D8EF24F0DAEF24F08E
:1049B000B6EF24F00DC005F00EC006F00FC007F0F2
:0649C00010C008F0120017
:1049C8003A0167A5EAEF24F0ECEF24F018EF25F0A0
:1049D800000E046E000E036EBCAAF5EF24F0F8EF8B
:1049E80024F0BC8AF9EF24F0BC9A020E026E860EFF
:1049F800016E990EE82EFED7012EFCD7022EFAD7AB
:104A08000000034A042A04BE13EF25F0045009E10C
:104A18001E0E035CD8A013EF25F015EF25F0F0EF7C
:104A280024F0BC9A3A016795110017BE20EF25F0D3
:104A38001EEF25F024EF25F0000E176E000E166EFF
:104A4800000E1A6E000E196E34EF25F0000E066E79
:104A5800200E056E13C007F078EC23F0194A1A2AC5
:104A68001650195C1A50800A186E1750800A185888
:104A7800D8A041EF25F043EF25F02AEF25F014C028
:104A88000DF015C00EF013C00FF0D5EC26F0120093
:104A9800000E086E000E076E54EF25F0074A082A2C
:104AA80005500724D96EDA6ADF50D8A45EEF25F0E6
:104AB80060EF25F052EF25F065EF25F0074A082A48
:104AC800062A60001BF0F6FF200EF76E000EF86E47
:104AD80005500724D96EDA6A08006F00D7FFDFFF98
:104AE800DF50D8A47AEF25F07CEF25F062EF25F0AF
:104AF800120007C00DF008C00EF005C00BF006C08C
:104B08000CF09CEF25F0600037F0D9FF60003BF017
:104B1800DAFFDF500F6E0D4A0E2A60002FF0D9FF22
:104B2800600033F0DAFF60003FF0DFFF0B4A0C2A29
:104B38000906D8A00A06092806E10A28D8A4A7EF7A
:104B480025F0A9EF25F087EF25F0120008BEAFEF9A
:104B580025F0B1EF25F0BBEF25F005C005F006C044
:104B680006F007C007F008C008F0D4EF25F005C02C
:104B780009F006C00AF007C00BF008C00CF0091EC7
:104B88000A1E0B1E0C1E092A000E0A220B220C22DA
:104B980009C005F00AC006F00BC007F00CC008F009
:104BA8001200B40EF66E4F0EF76E000EF86E00EEA1
:104BB800DAF010EE14F009006F00D7FFEEFFE550B1
:104BC800E150F9E100EE00F1500EEE6AE806FDE171
:104BD80000EEEEF0090EEE6AE806FDE15B6A5A6A3D
:104BE800596A586A080ED56E000ED66E000ED76E3A
:104BF800000124EF26F0000E086E000E076E18EF75
:104C080026F0000E0A6E000E096E094A0A2A0A509A
:104C180009E1A50E095CD8A014EF26F016EF26F0DE
:104C280009EF26F0074A082A0550075C065008587D
:104C3800D8A021EF26F023EF26F005EF26F012008A
:104C4800B2EC26F07FEC27F0000E0E6E100E0F6E01
:104C58000F50D8A4200E106E010EF5EC26F0080EA9
:104C68000001D96F9D0ED86F050EE82EFED7D82FFC
:104C7800FCD7D92FFAD700D0EEEC27F049EC20F07A
:104C88009EEC1CF057EF00F098C09AF055EF26F014
:104C980097C08EF09A0E00018F6F99C090F050EC7B
:104CA8001BF060006BF2F6FF200EF76E000EF86E38
:104CB8000800F5500009D8A464EF26F066EF26F046
:104CC8004CEF26F0000E0001986F000E976F12004F
:104CD80005C009F006C00AF0072A0704086E60003C
:104CE80023F0F6FF200EF76E000EF86E600027F036
:104CF800D9FF60002BF0DAFF094A0A2A08006F0082
:104D0800D7FFDFFFDF50D8A48CEF26F08EEF26F018
:104D180070EF26F01200000E491A000E4A1A000E13
:104D28004B1A800E4C1A45C005F046C006F047C025
:104D380007F048C008F049C009F04AC00AF04BC063
:104D48000BF04CC00CF008EC15F005C045F006C09F
:104D580046F007C047F008C048F01200C56AC70E01
:104D6800C46EC6683A01806B706B606BC28040810C
:104D78003E01F851F30B0409F86FF889FF6BF16BEA
:104D8800F56BFD6BF66BF76BF36BF46BF88F3A0111
:104D980065853901908FD28AD28E3A0167956185EF
:104DA8001200000E126E000E116EE4EF26F010C015
:104DB80005F0066A0FC007F078EC23F0114A122AB2
:104DC80011500D24D96E12500E20DA6EDF50106E7D
:104DD8001050D8A4F2EF26F0F4EF26F0DBEF26F01F
:104DE8001200116E020E1160FCEF26F0FEEF26F0A5
:104DF80007EF27F00E500F0B8009126E125094EC3B
:104E080027F00EEF27F00E500F0BC009126E12504C
:104E180094EC27F00FC00CF010C00DF075EC24F0E6
:104E280012009D0E0001A16F9BC0A2F0000EA56F9D
:104E3800000EA46F000EAC6F000EAB6FA20E976F42
:104E48009CC098F0A10E996F48EC26F000019B5188
:104E5800A425D96EDA6ADF6A120005500610071019
:104E68000810D8B43AEF27F03CEF27F044EF27F0CA
:104E7800000E051A000E061A000E071A800E081AF0
:104E880005C005F006C006F007C007F008C008F026
:104E980012000CBE52EF27F054EF27F05AEF27F01C
:104EA8000BC00BF00CC00CF066EF27F00BC00DF038
:104EB8000CC00EF00D1E0E1E0D4A0E2A0DC00BF072
:104EC8000EC00CF01200FF0E0516030E06167AA887
:104ED80070EF27F072EF27F079EF27F0060ED890E1
:104EE80005360636E82E73EF27F00650796E600017
:104EF80017F078FF1200000E066E0F0E056EFFEC1D
:104F080025F0C56AC46A010E94EC27F0380E94ECBB
:104F180027F00C0E94EC27F0060E94EC27F0120004
:104F28000B6E60002FF0BDFFC80E00D0E82EFDD735
:104F3800BC96BC880000BC98000E066E030E056E79
:104F4800FFEC25F012000B6E60002FF0BDFFBC8651
:104F5800BC880000BC98000E066E010E056EFFECC2
:104F680025F01200550E3A01BF6FAA0EBF6FBF9110
:104F78000A0E0B6F550EBF6FAA0EBF6FBF811200CE
:104F8800010EAE6EAD6AAF6AAB68AA6A3901A49524
:104F9800A00EAC6E12008C0E7A6E796A0F0E786EC7
:104FA8003F015E51F30B04095E6F120000006700B9
:104FB800CD0034019A0100026702CD0234039A033E
:104FC8007ABAE9EF27F0ECEF27F0010EEDEF27F0C2
:104FD800000E1200010E94EC27F01200F5EC27F0F9
:084FE8001200AC8E1200120051
:020000040030CA
:0A000000F8FFFFFF9FFFFFFFFFFF67
:00000001FF
