:1000000040D849D8010EEA6E000EE96E3F0EEE6E42
:10001000060EEE6E5B0EEE6E4F0EEE6E660EEE6E22
:100020006D0EEE6E7D0EEE6E070EEE6E7F0EEE6EB8
:100030006F0EEE6E770EEE6E7F0EEE6E390EEE6E7A
:100040003F0EEE6E790EEE6E710EEE6E000EE96EE4
:10005000CCA0FED7CCB255EC00F0CCB45FEC00F0F5
:10006000CCB669EC00F0F4D7AF0E0A6EE60E0B6E5C
:100070000A06FEE1AF0E0A6E0B06FAE10C06F8E185
:1000800012003F01CD6A3F01BD6A3A01706B3F012A
:10009000000EC56E12003F01CC6A3F01BC6A3A01F6
:1000A000606B3F01FF0EC46E120034EC00F0E9A259
:1000B0005CEF00F0000EE96EEE0EBD6E120034EC47
:1000C00000F0006EE92602E10F0EE96EED0EBD6E46
:0E00D000120034EC00F0000EBD6EE96E12005E
:020000040030CA
:0A000000F8FFFFFF9FFFFFFFFFFF67
:00000001FF
