:1000000045D84ED8010EEA6E000EE96E3F0EEE6E38
:10001000060EEE6E5B0EEE6E4F0EEE6E660EEE6E22
:100020006D0EEE6E7D0EEE6E070EEE6E7F0EEE6EB8
:100030006F0EEE6E770EEE6E7F0EEE6E390EEE6E7A
:100040003F0EEE6E790EEE6E710EEE6E000EE96EE4
:100050007CEC00F0CC84CCB65AEC00F0CCB86AEC66
:1000600000F0CCBA7CEC00F0F5D7C80E0A6E960E04
:100070000B6E030E0C6E0A06FEE1C80E0A6E0B062E
:10008000FAE1960E0B6E0C06F6E112003F01CD6A06
:100090003F01BD6A3A01706B3F01000EC56E120050
:1000A0003F01CC6A3F01BC6A3A01606B3F01FB0E25
:1000B000C46E120035EC00F06F00A7FFE8FF0F08D8
:1000C00004E1FF0EE96E000EEA6E6F00B3FFE8FF79
:1000D000BD6E120035EC00F06F00A7FFE8FF0008CE
:1000E00004E1100EE96E010EEA6E010EE95E6F008A
:1000F000BFFFE8FFBD6E120035EC00F0000EE96EA8
:080100006F00BFFFBDFF1200FC
:020000040030CA
:0A000000F8FFFFFF9FFFFFFFFFFF67
:00000001FF
