:1000000035D83ED8010EEA6E000EE96E010EEE6E96
:10001000060EEE6E5B0EEE6E4F0EEE6E660EEE6E22
:100020006D0EEE6E7D0EEE6E070EEE6E7F0EEE6EB8
:100030006F0EEE6E770EEE6E7F0EEE6E390EEE6E7A
:100040003F0EEE6E790EEE6E710EEE6E29EC00F044
:10005000FDD7AF0E0A6EE60E0B6E0A06FEE1AF0E7E
:100060000A6E0B06FAE10C06F8E112003F01CD6AB8
:100070003F01BD6A3A01706B3F01000EC56E120070
:100080003F01CC6A3F01BC6A3A01606B3F01FF0E41
:04009000C46E120028
:020000040030CA
:0A000000F8FFFFFF9FFFFFFFFFFF67
:00000001FF
