:04000000FEEFFFF020
:102000000000C26A0F0EC36EC46AC56A3E01F86B57
:10201000F96BFA6BB26A3A01406B506B606B706B94
:102020007A6A19681668000E156E000E146E000E9E
:10203000186E000E176E38EF10F062EC11F0196E8A
:10204000630E196426EF10F028EF10F038EF10F04F
:10205000690E19602EEF10F030EF10F038EF10F02D
:10206000000E0A6E210E096E06EC12F036EF10F02B
:10207000640E19603EEF10F040EF10F01DEF10F00D
:1020800019501426000E152214C009F015C00AF0CC
:1020900006EC12F0020E116E860E106E990EE82EEE
:1020A000FED7102EFCD7112EFAD7000019685CEF6E
:1020B00010F062EC11F0196E1928D8A462EF10F03C
:1020C00064EF10F06DEF10F0690E1918D8A46BEFE3
:1020D00010F06DEF10F059EF10F0640E196073EF0F
:1020E00010F075EF10F0B0EF10F014C001F015C053
:1020F00002F0000E046E0A0E036E8BEC13F001C0AA
:1021000014F002C015F019501426000E152214C048
:1021100009F015C00AF006EC12F0020E116E860EE0
:10212000106E990EE82EFED7102EFCD7112EFAD77E
:1021300000009EEF10F062EC11F0166E630E166454
:10214000A4EF10F0A6EF10F09BEF10F0690E1660F0
:10215000ACEF10F0AEEF10F09BEF10F0B2EF10F01C
:1021600019C016F0196816C009F00A6A06EC12F0D8
:10217000020E116E860E106E990EE82EFED7102EEE
:10218000FCD7112EFAD70000C9EF10F062EC11F065
:10219000196E640E1960CFEF10F0D1EF10F0C6EF9A
:1021A00010F019501726000E182217C009F018C099
:1021B0000AF006EC12F0020E116E860E106E990EE9
:1021C000E82EFED7102EFCD7112EFAD70000196882
:1021D000EDEF10F062EC11F0196E630E1964F3EF7D
:1021E00010F0F5EF10F0FEEF10F0690E1918D8A4FA
:1021F000FCEF10F0FEEF10F0EAEF10F0640E196043
:1022000004EF11F006EF11F02CEF11F017C001F000
:1022100018C002F0000E046E0A0E036E8BEC13F071
:1022200001C017F002C018F019501726000E18222E
:1022300017C009F018C00AF006EC12F023EF11F0F5
:1022400062EC11F0196E690E1918D8A42AEF11F07A
:102250002CEF11F020EF11F017C009F018C00AF0B0
:1022600006EC12F0020E116E860E106E990EE82E1C
:10227000FED7102EFCD7112EFAD7000014C009F09B
:1022800015C00AF017C00BF018C00CF016C00DF006
:10229000D9EC12F009C012F00AC013F062EC11F090
:1022A000690AD8A456EF11F058EF11F04EEF11F073
:1022B00012C009F013C00AF006EC12F011EF10F092
:1022C000FEEFFFF0CB98CB9ACB9CCB9ECB88CBA0DC
:1022D0006CEF11F06EEF11F071EF11F0010E05EFE0
:1022E00012F0CBA276EF11F078EF11F07BEF11F046
:1022F000040E05EF12F0CBA480EF11F082EF11F085
:1023000085EF11F0070E05EF12F0CB98CB8ACBA02A
:102310008CEF11F08EEF11F091EF11F0020E05EF3E
:1023200012F0CBA296EF11F098EF11F09BEF11F0A5
:10233000050E05EF12F0CBA4A0EF11F0A2EF11F003
:10234000A5EF11F0080E05EF12F0CBA6AAEF11F0E1
:10235000ACEF11F0AFEF11F0000E05EF12F0CB9AD9
:10236000CB8CCBA0B6EF11F0B8EF11F0BBEF11F0B2
:10237000030E05EF12F0CBA2C0EF11F0C2EF11F087
:10238000C5EF11F0060E05EF12F0CBA4CAEF11F065
:10239000CCEF11F0CFEF11F0090E05EF12F0CBA644
:1023A000D4EF11F0D6EF11F0D9EF11F0690E05EF6F
:1023B00012F0CB9CCB8ECBA0E0EF11F0E2EF11F04E
:1023C000E5EF11F0640E05EF12F0CBA2EAEF11F089
:1023D000ECEF11F0EFEF11F0650E05EF12F0CBA46A
:1023E000F4EF11F0F6EF11F0F9EF11F0660E05EFD2
:1023F00012F0CBA6FEEF11F000EF12F003EF12F097
:10240000670E05EF12F0CB9EFF0E1200BA6ABC6A8F
:10241000BD6A0ABE15EF12F00A5009E1640E095CAC
:10242000D8A015EF12F017EF12F019EF12F077EFB6
:1024300012F00ABE20EF12F01EEF12F02EEF12F093
:10244000CD8E09C001F00AC002F0FF0E046E0368D1
:102450008BEC13F001C009F002C00AF009C001F0D2
:102460000AC002F0000E046E0A0E036E78EC12F041
:1024700001C00DF002C00EF009C001F00AC002F068
:10248000000E046E0A0E036E34EC13F001C00BF064
:1024900002C00CF00D500E10D8B451EF12F053EFF3
:1024A00012F071EF12F00D501A0FD96EDA6ADF5088
:1024B000BC6E0D501A0FD96EDA6ADFA062EF12F00F
:1024C00064EF12F065EF12F0CA800D501A0FD96E4A
:1024D000DA6ADFA26EEF12F070EF12F071EF12F015
:1024E000CA820B501A0FD96EDA6ADF50BD2612006D
:1024F000066A04BE80EF12F07EEF12F086EF12F053
:10250000036C041ED8B0042A010E066E02BE8DEFC5
:1025100012F08BEF12F093EF12F0016C021ED8B0A4
:10252000022A010E061A000E086E000E076E0350F6
:102530000410D8B49EEF12F0A0EF12F0C8EF12F022
:10254000010E056EA8EF12F0D89003360436052A66
:1025500004AEADEF12F0AFEF12F0A4EF12F0D8908E
:10256000073608360350015C04500258D8A0BBEF70
:1025700012F0BDEF12F0C2EF12F00350015E0450F2
:10258000025A0780D89004320332052EAFEF12F0C2
:102590000650D8B4CEEF12F0D0EF12F0D4EF12F014
:1025A000076C081ED8B0082A07C001F008C002F066
:1025B000120016EF13F00B500924096E0C500A207C
:1025C0000A6E33EF13F00B50095C096E0C500A5879
:1025D0000A6E33EF13F00B5009026F00CCFF0EF0C0
:1025E0006F00D0FF0FF00A02F3500F260C500902C3
:1025F000F3500F260EC009F00FC00AF033EF13F0AE
:1026000009C001F00AC002F00BC003F00CC004F0D6
:1026100078EC12F001C009F002C00AF033EF13F0B9
:10262000000E0A6E000E096E33EF13F00D500E6EA1
:102630000F6A0F50000AD8B420EF13F010EF13F018
:102640000E50640AD8B4DBEF12F0010AD8B4E3EFFD
:1026500012F0030AD8B4EBEF12F0010AD8B400EF7D
:1026600013F010EF13F01200066A02BE3CEF13F0F5
:102670003AEF13F042EF13F0016C021ED8B0022AB9
:10268000010E066E04BE49EF13F047EF13F04DEF55
:1026900013F0036C041ED8B0042A03500410D8B4FD
:1026A00054EF13F056EF13F07AEF13F0010E056EAE
:1026B0005EEF13F0D89003360436052A04AE63EFBC
:1026C00013F065EF13F05AEF13F00350015C045060
:1026D0000258D8A06EEF13F070EF13F074EF13F000
:1026E0000350015E0450025AD89004320332052E82
:1026F00065EF13F00650D8B480EF13F082EF13F0BB
:1027000086EF13F0016C021ED8B0022A01C001F05E
:1027100002C002F01200015003026F00CCFF05F06E
:102720006F00D0FF06F001500402F350062602505D
:102730000302F350062605C001F006C002F01200A5
:10274000680EF66E270EF76E000EF86E00EE1AF0A9
:1027500010EE0AF009006F00D7FFEEFFE550E150E0
:10276000F9E1000101EF10F03F065B4F666D7D0758
:022770007F6F79
:020000040001F9
:04FFFC00A0EF13F06F
:020000040030CA
:0A000000F8FFFFFF9FFFFFFFFFFF67
:00000001FF
