:04000000FEEFFFF020
:102000000000C26A0F0EC36EC46AC56A3E01F86B57
:10201000F96BFA6BB26A3A01406B506B606B706B94
:102020007A6A19681668000E156E000E146E000E9E
:10203000186E000E176E20EF10F04BEC11F0196EB9
:10204000640E196026EF10F028EF10F01DEF10F06D
:1020500019501426000E152214C009F015C00AF0FC
:10206000EFEC11F0020E116E860E106E990EE82E36
:10207000FED7102EFCD7112EFAD70000196845EFB5
:1020800010F04BEC11F0640E196E1928D8A44BEF28
:1020900010F04DEF10F056EF10F0690E1918D8A49B
:1020A00054EF10F056EF10F041EF10F0640E19608D
:1020B0005CEF10F05EEF10F099EF10F014C001F03B
:1020C00015C002F0000E046E0A0E036E7DEC13F0D4
:1020D00001C014F002C015F019501426000E15228C
:1020E00014C009F015C00AF0EFEC11F0020E116EE9
:1020F000860E106E990EE82EFED7102EFCD7112EEC
:10210000FAD7000087EF10F04BEC11F0166E630E5B
:1021100016648DEF10F08FEF10F084EF10F0690E61
:10212000166095EF10F097EF10F084EF10F09BEF32
:1021300010F019C016F0196816C009F00A6AEFEC21
:1021400011F0020E116E860E106E990EE82EFED75B
:10215000102EFCD7112EFAD70000B2EF10F04BEC86
:1021600011F0196E640E1960B8EF10F0BAEF10F0AC
:10217000AFEF10F019501726000E182217C009F003
:1021800018C00AF0EFEC11F0020E116E860E106E00
:10219000990EE82EFED7102EFCD7112EFAD700008C
:1021A0001968D6EF10F04BEC11F0196E630E19643C
:1021B000DCEF10F0DEEF10F0E7EF10F0690E191809
:1021C000D8A4E5EF10F0E7EF10F0D3EF10F0640EB5
:1021D0001960EDEF10F0EFEF10F015EF11F017C0F0
:1021E00001F018C002F0000E046E0A0E036E7DECC2
:1021F00013F001C017F002C018F019501726000E96
:10220000182217C009F018C00AF0EFEC11F00CEF1B
:1022100011F04BEC11F0196E690E1918D8A413EFD8
:1022200011F015EF11F009EF11F017C009F018C007
:102230000AF0EFEC11F0020E116E860E106E990E80
:10224000E82EFED7102EFCD7112EFAD7000014C0AE
:1022500009F015C00AF017C00BF018C00CF016C03A
:102260000DF061EC12F009C012F00AC013F04BEC53
:1022700011F0690AD8A43FEF11F041EF11F037EFE8
:1022800011F012C009F013C00AF0EFEC11F011EFD9
:1022900010F0FEEFFFF0CB98CB9ACB9CCB9ECB8877
:1022A000CBA055EF11F057EF11F05AEF11F0010EDE
:1022B000EEEF11F0CBA25FEF11F061EF11F064EFE0
:1022C00011F0040EEEEF11F0CBA469EF11F06BEFFB
:1022D00011F06EEF11F0070EEEEF11F0CB98CB8AF4
:1022E000CBA075EF11F077EF11F07AEF11F0020E3D
:1022F000EEEF11F0CBA27FEF11F081EF11F084EF40
:1023000011F0050EEEEF11F0CBA489EF11F08BEF79
:1023100011F08EEF11F0080EEEEF11F0CBA693EF57
:1023200011F095EF11F098EF11F0000EEEEF11F0B3
:10233000CB9ACB8CCBA09FEF11F0A1EF11F0A4EFC3
:1023400011F0030EEEEF11F0CBA2A9EF11F0ABEFFD
:1023500011F0AEEF11F0060EEEEF11F0CBA4B3EFDB
:1023600011F0B5EF11F0B8EF11F0090EEEEF11F02A
:10237000CBA6BDEF11F0BFEF11F0C2EF11F0690E67
:10238000EEEF11F0CB9CCB8ECBA0C9EF11F0CBEFD1
:1023900011F0CEEF11F0640EEEEF11F0CBA2D3EFFF
:1023A00011F0D5EF11F0D8EF11F0650EEEEF11F04E
:1023B000CBA4DDEF11F0DFEF11F0E2EF11F0660ECC
:1023C000EEEF11F0CBA6E7EF11F0E9EF11F0ECEF33
:1023D00011F0670EEEEF11F0CB9EFF0E1200BA6AFD
:1023E000BC6ABD6A0ABEFEEF11F00A5009E1640E34
:1023F000095CD8A0FEEF11F000EF12F002EF12F02E
:1024000060EF12F00ABE09EF12F007EF12F017EFBB
:1024100012F0CD8E09C001F00AC002F0FF0E046E6A
:1024200003687DEC13F001C009F002C00AF009C096
:1024300001F00AC002F0000E046E0A0E036EC5EC35
:1024400012F001C00DF002C00EF009C001F00AC088
:1024500002F0000E046E0A0E036E26EC13F001C0AB
:102460000BF002C00CF00D500E10D8B43AEF12F081
:102470003CEF12F05AEF12F00D501A0FD96EDA6AD3
:10248000DF50BC6E0D501A0FD96EDA6ADFA04BEF29
:1024900012F04DEF12F04EEF12F0CA800D501A0FED
:1024A000D96EDA6ADFA257EF12F059EF12F05AEF45
:1024B00012F0CA820B501A0FD96EDA6ADF50BD26AD
:1024C0001200A7EF12F00B500924096E0C500A20DD
:1024D0000A6EC4EF12F00B50095C096E0C500A58DA
:1024E0000A6EC4EF12F00B5009026F00CCFF0EF021
:1024F0006F00D0FF0FF00A02F3500F260C500902B4
:10250000F3500F260EC009F00FC00AF0C4EF12F00E
:102510000B500C10D8A48FEF12F091EF12F097EF40
:1025200012F0000E0A6E000E096EC4EF12F009C020
:1025300001F00AC002F00BC003F00CC004F0C5ECBF
:1025400012F001C009F002C00AF0C4EF12F00D5001
:102550000E6E0F6A0F50000AD8B4B1EF12F091EF6F
:1025600012F00E50640AD8B463EF12F0010AD8B426
:102570006BEF12F0030AD8B473EF12F0010AD8B46B
:1025800088EF12F091EF12F01200066A04BECDEF50
:1025900012F0CBEF12F0D3EF12F0036C041ED8B0A0
:1025A000042A010E066E02BEDAEF12F0D8EF12F026
:1025B000E0EF12F0016C021ED8B0022A010E061ADA
:1025C000000E086E000E076E03500410D8B4EBEF37
:1025D00012F0EDEF12F015EF13F0010E056EF5EFAE
:1025E00012F0D89003360436052A04AEFAEF12F042
:1025F000FCEF12F0F1EF12F0D890073608360350D6
:10260000015C04500258D8A008EF13F00AEF13F051
:102610000FEF13F00350015E0450025A0780D89068
:1026200004320332052EFCEF12F00650D8B41BEF33
:1026300013F01DEF13F021EF13F0076C081ED8B054
:10264000082A07C001F008C002F01200066A02BEA4
:102650002EEF13F02CEF13F034EF13F0016C021E89
:10266000D8B0022A010E066E04BE3BEF13F039EF1C
:1026700013F03FEF13F0036C041ED8B0042A03508C
:102680000410D8B446EF13F048EF13F06CEF13F0DA
:10269000010E056E50EF13F0D89003360436052A6C
:1026A00004AE55EF13F057EF13F04CEF13F0035057
:1026B000015C04500258D8A060EF13F062EF13F0F1
:1026C00066EF13F00350015E0450025AD8900432B2
:1026D0000332052E57EF13F00650D8B472EF13F003
:1026E00074EF13F078EF13F0016C021ED8B0022AD9
:1026F00001C001F002C002F01200015003026F009D
:10270000CCFF05F06F00D0FF06F001500402F3503B
:10271000062602500302F350062605C001F006C04B
:1027200002F012004C0EF66E270EF76E000EF86ED9
:1027300000EE1AF010EE0AF009006F00D7FFEEFF6E
:10274000E550E150F9E1000101EF10F03F065B4F69
:06275000666D7D077F6F3E
:020000040001F9
:04FFFC0092EF13F07D
:020000040030CA
:0A000000F8FFFFFF9FFFFFFFFFFF67
:00000001FF
