:04000000FEEFFFF020
:102000000000C26A0F0EC36EC46AC56A3E01F86B57
:10201000F96BFA6BB26A3A01406B506B606B706B94
:102020007A6A19681468000E166E000E156E000E9E
:10203000186E000E176E20EF10F0B2EC11F0196E52
:10204000640E196026EF10F028EF10F01DEF10F06D
:102050000A0E1918D8A42FEF10F031EF10F033EF5B
:1020600010F011EF10F019501526000E162215C0B1
:1020700009F016C00AF076EC12F0020E116E860E10
:10208000106E990EE82EFED7102EFCD7112EFAD71F
:10209000000019684FEF10F0B2EC11F0196E19281A
:1020A000D8B455EF10F057EF10F04CEF10F0690E68
:1020B0001918D8B45EEF10F060EF10F04CEF10F08C
:1020C0000A0E1918D8A467EF10F069EF10F06BEF43
:1020D00010F011EF10F0640E196071EF10F073EF53
:1020E00010F0B6EF10F015C001F016C002F0000EAF
:1020F000046E0A0E036E04EC14F001C015F002C069
:1021000016F019501526000E162215C009F016C03B
:102110000AF076EC12F0020E116E860E106E990E19
:10212000E82EFED7102EFCD7112EFAD70000196822
:102130009DEF10F0B2EC11F0196E630E1964A3EF6D
:1021400010F0A5EF10F0ADEF10F0680E1964ABEFD2
:1021500010F0ADEF10F0B6EF10F00A0E1918D8A479
:10216000B4EF10F0B6EF10F09AEF10F0630E1964B0
:10217000BCEF10F0BEEF10F0CAEF10F0680E19605F
:10218000C4EF10F0C6EF10F0CAEF10F019C014F051
:10219000D5EF10F00A0E1918D8A4D1EF10F0D3EF34
:1021A00010F0D5EF10F011EF10F01968000E0A6E64
:1021B000C80E096E76EC12F0020E116E860E106ECD
:1021C000990EE82EFED7102EFCD7112EFAD700005C
:1021D000EDEF10F0B2EC11F0196E640E1960F3EF30
:1021E00010F0F5EF10F0EAEF10F00A0E1918D8A46D
:1021F000FCEF10F0FEEF10F000EF11F011EF10F017
:1022000019501726000E182217C009F018C00AF03E
:1022100076EC12F0020E116E860E106E990EE82EFC
:10222000FED7102EFCD7112EFAD7000019681CEF2C
:1022300011F0B2EC11F0196E630E196422EF11F077
:1022400024EF11F036EF11F0690E1918D8B42BEF06
:1022500011F02DEF11F036EF11F00A0E1918D8A475
:1022600034EF11F036EF11F019EF11F00A0E1918D2
:10227000D8A43DEF11F03FEF11F041EF11F011EF55
:1022800010F0640E196047EF11F049EF11F082EF82
:1022900011F017C001F018C002F0000E046E0A0E13
:1022A000036E04EC14F001C017F002C018F01950CE
:1022B0001726000E182217C009F018C00AF076EC95
:1022C00012F0020E116E860E106E990EE82EFED7D9
:1022D000102EFCD7112EFAD70000B2EC11F0196EB7
:1022E000690E1918D8B477EF11F079EF11F082EF79
:1022F00011F00A0E1918D8A480EF11F082EF11F036
:102300006DEF11F00A0E1918D8A489EF11F08BEFB8
:1023100011F08DEF11F011EF10F015C009F016C09B
:102320000AF017C00BF018C00CF014C00DF0E8EC68
:1023300012F009C012F00AC013F012C009F013C065
:102340000AF076EC12F0080E116E9D0E106E060E5D
:10235000E82EFED7102EFCD7112EFAD711EF10F071
:10236000FEEFFFF0CB98CB9ACB9CCB9E410E0F6E2D
:10237000EE0EE82EFED70F2EFCD700D0CB88CBA0D8
:10238000C4EF11F0C6EF11F0C9EF11F0010E75EFB7
:1023900012F0CBA2CEEF11F0D0EF11F0D3EF11F08D
:1023A000040E75EF12F0CBA4D8EF11F0DAEF11F0B4
:1023B000DDEF11F0070E75EF12F0CBA6E2EF11F092
:1023C000E4EF11F0F5EF11F0000E0A6E000E096E49
:1023D00076EC12F0410E0F6EEE0EE82EFED70F2EA9
:1023E000FCD700D00A0E75EF12F0CB98CB8ACBA0A9
:1023F000FCEF11F0FEEF11F001EF12F0020E75EF9D
:1024000012F0CBA206EF12F008EF12F00BEF12F071
:10241000050E75EF12F0CBA410EF12F012EF12F0D0
:1024200015EF12F0080E75EF12F0CBA61AEF12F0AE
:102430001CEF12F01FEF12F0000E75EF12F0CB9AA6
:10244000CB8CCBA026EF12F028EF12F02BEF12F07E
:10245000030E75EF12F0CBA230EF12F032EF12F054
:1024600035EF12F0060E75EF12F0CBA43AEF12F032
:102470003CEF12F03FEF12F0090E75EF12F0CBA611
:1024800044EF12F046EF12F049EF12F0690E75EFCB
:1024900012F0CB9CCB8ECBA050EF12F052EF12F08B
:1024A00055EF12F0640E75EF12F0CBA25AEF12F056
:1024B0005CEF12F05FEF12F0650E75EF12F0CBA437
:1024C00064EF12F066EF12F069EF12F0660E75EF2E
:1024D00012F0CBA66EEF12F070EF12F073EF12F065
:1024E000670E75EF12F0CB9EFF0E1200BA6ABC6A3F
:1024F000BD6A0ABE85EF12F00A5009E1640E095C5C
:10250000D8A085EF12F087EF12F089EF12F0E7EF15
:1025100012F00ABE90EF12F08EEF12F09EEF12F062
:10252000CD8E09C001F00AC002F0FF0E046E0368F0
:1025300004EC14F001C009F002C00AF009C001F077
:102540000AC002F0000E046E0A0E036E4CEC13F08B
:1025500001C00DF002C00EF009C001F00AC002F087
:10256000000E046E0A0E036EADEC13F001C00BF00A
:1025700002C00CF00D500E10D8B4C1EF12F0C3EF32
:1025800012F0E1EF12F00D501A0FD96EDA6ADF5037
:10259000BC6E0D501A0FD96EDA6ADFA0D2EF12F0BE
:1025A000D4EF12F0D5EF12F0CA800D501A0FD96E89
:1025B000DA6ADFA2DEEF12F0E0EF12F0E1EF12F0E4
:1025C000CA820B501A0FD96EDA6ADF50BD2612008C
:1025D0002EEF13F00B500924096E0C500A200A6EDE
:1025E0004BEF13F00B50095C096E0C500A580A6E41
:1025F0004BEF13F00B5009026F00CCFF0EF06F0091
:10260000D0FF0FF00A02F3500F260C500902F350CE
:102610000F260EC009F00FC00AF04BEF13F00B505D
:102620000C10D8A416EF13F018EF13F01EEF13F0F0
:10263000000E0A6E000E096E4BEF13F009C001F098
:102640000AC002F00BC003F00CC004F04CEC13F015
:1026500001C009F002C00AF04BEF13F00D500E6EEE
:102660000F6A0F50000AD8B438EF13F018EF13F0C8
:102670000E50640AD8B4EAEF12F0010AD8B4F2EFAF
:1026800012F0030AD8B4FAEF12F0010AD8B40FEF2F
:1026900013F018EF13F01200066A04BE54EF13F0A3
:1026A00052EF13F05AEF13F0036C041ED8B0042A53
:1026B000010E066E02BE61EF13F05FEF13F067EFDD
:1026C00013F0016C021ED8B0022A010E061A000E89
:1026D000086E000E076E03500410D8B472EF13F0AA
:1026E00074EF13F09CEF13F0010E056E7CEF13F006
:1026F000D89003360436052A04AE81EF13F083EF39
:1027000013F078EF13F0D890073608360350015CC9
:1027100004500258D8A08FEF13F091EF13F096EF0A
:1027200013F00350015E0450025A0780D89004321F
:102730000332052E83EF13F00650D8B4A2EF13F046
:10274000A4EF13F0A8EF13F0076C081ED8B0082A06
:1027500007C001F008C002F01200066A02BEB5EF21
:1027600013F0B3EF13F0BBEF13F0016C021ED8B0FF
:10277000022A010E066E04BEC2EF13F0C0EF13F082
:10278000C6EF13F0036C041ED8B0042A03500410E3
:10279000D8B4CDEF13F0CFEF13F0F3EF13F0010E39
:1027A000056ED7EF13F0D89003360436052A04AE31
:1027B000DCEF13F0DEEF13F0D3EF13F00350015C06
:1027C00004500258D8A0E7EF13F0E9EF13F0EDEF53
:1027D00013F00350015E0450025AD89004320332C1
:1027E000052EDEEF13F00650D8B4F9EF13F0FBEF2F
:1027F00013F0FFEF13F0016C021ED8B0022A01C0E3
:1028000001F002C002F01200015003026F00CCFF81
:1028100005F06F00D0FF06F001500402F3500626C9
:1028200002500302F350062605C001F006C002F074
:1028300012005A0EF66E280EF76E000EF86E00EEBD
:102840001AF010EE0AF009006F00D7FFEEFFE55016
:10285000E150F9E1000101EF10F03F065B4F666DBA
:042860007D077F6F02
:020000040001F9
:04FFFC0019EF14F0F5
:020000040030CA
:0A000000F8FFFFFF9FFFFFFFFFFF67
:00000001FF
