:04000000FEEFFFF020
:102000000000C26A0F0EC36EC46AC56A3E01F86B57
:10201000F96BFA6BB26A3A01406B506B606B706B94
:102020007A6A19681468000E166E000E156E000E9E
:10203000186E000E176E20EF10F0B3EC11F0196E51
:10204000640E196026EF10F028EF10F01DEF10F06D
:102050000A0E1918D8A42FEF10F031EF10F033EF5B
:1020600010F011EF10F019501526000E162215C0B1
:1020700009F016C00AF077EC12F0020E116E860E0F
:10208000106E990EE82EFED7102EFCD7112EFAD71F
:10209000000019684FEF10F0B3EC11F0196E192819
:1020A000D8B455EF10F057EF10F04CEF10F0690E68
:1020B0001918D8B45EEF10F060EF10F04CEF10F08C
:1020C0000A0E1918D8A467EF10F069EF10F06BEF43
:1020D00010F011EF10F0640E196071EF10F073EF53
:1020E00010F0B6EF10F015C001F016C002F0000EAF
:1020F000046E0A0E036E05EC14F001C015F002C068
:1021000016F019501526000E162215C009F016C03B
:102110000AF077EC12F0020E116E860E106E990E18
:10212000E82EFED7102EFCD7112EFAD70000196822
:102130009DEF10F0B3EC11F0196E630E1964A3EF6C
:1021400010F0A5EF10F0ADEF10F0680E1964ABEFD2
:1021500010F0ADEF10F0B6EF10F00A0E1918D8A479
:10216000B4EF10F0B6EF10F09AEF10F0630E1964B0
:10217000BCEF10F0BEEF10F0CAEF10F0680E19605F
:10218000C4EF10F0C6EF10F0CAEF10F019C014F051
:10219000D5EF10F00A0E1918D8A4D1EF10F0D3EF34
:1021A00010F0D5EF10F011EF10F01968000E0A6E64
:1021B000000E096E77EC12F0020E116E860E106E94
:1021C000990EE82EFED7102EFCD7112EFAD700005C
:1021D000EDEF10F0B3EC11F0196E640E1960F3EF2F
:1021E00010F0F5EF10F0EAEF10F00A0E1918D8A46D
:1021F000FCEF10F0FEEF10F000EF11F011EF10F017
:1022000019501726000E182217C009F018C00AF03E
:1022100077EC12F0020E116E860E106E990EE82EFB
:10222000FED7102EFCD7112EFAD7000019681CEF2C
:1022300011F0B3EC11F0196E630E196422EF11F076
:1022400024EF11F036EF11F0690E1918D8B42BEF06
:1022500011F02DEF11F036EF11F00A0E1918D8A475
:1022600034EF11F036EF11F019EF11F00A0E1918D2
:10227000D8A43DEF11F03FEF11F041EF11F011EF55
:1022800010F0640E196047EF11F049EF11F082EF82
:1022900011F017C001F018C002F0000E046E0A0E13
:1022A000036E05EC14F001C017F002C018F01950CD
:1022B0001726000E182217C009F018C00AF077EC94
:1022C00012F0020E116E860E106E990EE82EFED7D9
:1022D000102EFCD7112EFAD70000B3EC11F0196EB6
:1022E000690E1918D8B477EF11F079EF11F082EF79
:1022F00011F00A0E1918D8A480EF11F082EF11F036
:102300006DEF11F00A0E1918D8A489EF11F08BEFB8
:1023100011F08DEF11F011EF10F015C009F016C09B
:102320000AF017C00BF018C00CF014C00DF0E9EC67
:1023300012F009C012F00AC013F012C009F013C065
:102340000AF077EC12F0050E116E0F0E106EF10E02
:10235000E82EFED7102EFCD7112EFAD7000011EF71
:1023600010F0FEEFFFF0CB98CB9ACB9CCB9E410EAA
:102370000F6EEE0EE82EFED70F2EFCD700D0CB88C6
:10238000CBA0C5EF11F0C7EF11F0CAEF11F0010EAD
:1023900076EF12F0CBA2CFEF11F0D1EF11F0D4EF26
:1023A00011F0040E76EF12F0CBA4D9EF11F0DBEFB1
:1023B00011F0DEEF11F0070E76EF12F0CBA6E3EF8F
:1023C00011F0E5EF11F0F6EF11F0000E0A6E000EBD
:1023D000096E77EC12F0410E0F6EEE0EE82EFED76E
:1023E0000F2EFCD700D00A0E76EF12F0CB98CB8AD6
:1023F000CBA0FDEF11F0FFEF11F002EF12F0020E93
:1024000076EF12F0CBA207EF12F009EF12F00CEF0B
:1024100012F0050E76EF12F0CBA411EF12F013EFCD
:1024200012F016EF12F0080E76EF12F0CBA61BEFAB
:1024300012F01DEF12F020EF12F0000E76EF12F006
:10244000CB9ACB8CCBA027EF12F029EF12F02CEF18
:1024500012F0030E76EF12F0CBA231EF12F033EF51
:1024600012F036EF12F0060E76EF12F0CBA43BEF2F
:1024700012F03DEF12F040EF12F0090E76EF12F07D
:10248000CBA645EF12F047EF12F04AEF12F0690EBB
:1024900076EF12F0CB9CCB8ECBA051EF12F053EF26
:1024A00012F056EF12F0640E76EF12F0CBA25BEF53
:1024B00012F05DEF12F060EF12F0650E76EF12F0A1
:1024C000CBA465EF12F067EF12F06AEF12F0660E20
:1024D00076EF12F0CBA66FEF12F071EF12F074EFFF
:1024E00012F0670E76EF12F0CB9EFF0E1200BA6A62
:1024F000BC6ABD6A0ABE86EF12F00A5009E1640E9A
:10250000095CD8A086EF12F088EF12F08AEF12F083
:10251000E8EF12F00ABE91EF12F08FEF12F09FEF8A
:1025200012F0CD8E09C001F00AC002F0FF0E046E59
:10253000036805EC14F001C009F002C00AF009C0FC
:1025400001F00AC002F0000E046E0A0E036E4DEC9C
:1025500013F001C00DF002C00EF009C001F00AC076
:1025600002F0000E046E0A0E036EAEEC13F001C012
:102570000BF002C00CF00D500E10D8B4C2EF12F0E8
:10258000C4EF12F0E2EF12F00D501A0FD96EDA6AB2
:10259000DF50BC6E0D501A0FD96EDA6ADFA0D3EF90
:1025A00012F0D5EF12F0D6EF12F0CA800D501A0FCC
:1025B000D96EDA6ADFA2DFEF12F0E1EF12F0E2EF9C
:1025C00012F0CA820B501A0FD96EDA6ADF50BD269C
:1025D00012002FEF13F00B500924096E0C500A2043
:1025E0000A6E4CEF13F00B50095C096E0C500A5840
:1025F0000A6E4CEF13F00B5009026F00CCFF0EF087
:102600006F00D0FF0FF00A02F3500F260C500902A2
:10261000F3500F260EC009F00FC00AF04CEF13F074
:102620000B500C10D8A417EF13F019EF13F01FEF95
:1026300013F0000E0A6E000E096E4CEF13F009C085
:1026400001F00AC002F00BC003F00CC004F04DEC26
:1026500013F001C009F002C00AF04CEF13F00D5066
:102660000E6E0F6A0F50000AD8B439EF13F019EF4D
:1026700013F00E50640AD8B4EBEF12F0010AD8B48C
:10268000F3EF12F0030AD8B4FBEF12F0010AD8B44A
:1026900010EF13F019EF13F01200066A04BE55EFA5
:1026A00013F053EF13F05BEF13F0036C041ED8B07C
:1026B000042A010E066E02BE62EF13F060EF13F003
:1026C00068EF13F0016C021ED8B0022A010E061A40
:1026D000000E086E000E076E03500410D8B473EF9E
:1026E00013F075EF13F09DEF13F0010E056E7DEF03
:1026F00013F0D89003360436052A04AE82EF13F0A7
:1027000084EF13F079EF13F0D890073608360350B2
:10271000015C04500258D8A090EF13F092EF13F030
:1027200097EF13F00350015E0450025A0780D890CF
:1027300004320332052E84EF13F00650D8B4A3EF11
:1027400013F0A5EF13F0A9EF13F0076C081ED8B033
:10275000082A07C001F008C002F01200066A02BE93
:10276000B6EF13F0B4EF13F0BCEF13F0016C021EE0
:10277000D8B0022A010E066E04BEC3EF13F0C1EFFB
:1027800013F0C7EF13F0036C041ED8B0042A0350F3
:102790000410D8B4CEEF13F0D0EF13F0F4EF13F031
:1027A000010E056ED8EF13F0D89003360436052AD3
:1027B00004AEDDEF13F0DFEF13F0D4EF13F00350AE
:1027C000015C04500258D8A0E8EF13F0EAEF13F0D0
:1027D000EEEF13F00350015E0450025AD890043219
:1027E0000332052EDFEF13F00650D8B4FAEF13F0E2
:1027F000FCEF13F000EF14F0016C021ED8B0022AB7
:1028000001C001F002C002F01200015003026F008B
:10281000CCFF05F06F00D0FF06F001500402F3502A
:10282000062602500302F350062605C001F006C03A
:1028300002F012005C0EF66E280EF76E000EF86EB7
:1028400000EE1AF010EE0AF009006F00D7FFEEFF5D
:10285000E550E150F9E1000101EF10F03F065B4F58
:06286000666D7D077F6F2D
:020000040001F9
:04FFFC001AEF14F0F4
:020000040030CA
:0A000000F8FFFFFF9FFFFFFFFFFF67
:00000001FF
